{"abi":[{"type":"constructor","inputs":[],"stateMutability":"nonpayable"},{"type":"function","name":"DOMAIN_SEPARATOR","inputs":[],"outputs":[{"name":"","type":"bytes32","internalType":"bytes32"}],"stateMutability":"view"},{"type":"function","name":"allowance","inputs":[{"name":"owner","type":"address","internalType":"address"},{"name":"spender","type":"address","internalType":"address"}],"outputs":[{"name":"","type":"uint256","internalType":"uint256"}],"stateMutability":"view"},{"type":"function","name":"approve","inputs":[{"name":"spender","type":"address","internalType":"address"},{"name":"value","type":"uint256","internalType":"uint256"}],"outputs":[{"name":"","type":"bool","internalType":"bool"}],"stateMutability":"nonpayable"},{"type":"function","name":"balanceOf","inputs":[{"name":"account","type":"address","internalType":"address"}],"outputs":[{"name":"","type":"uint256","internalType":"uint256"}],"stateMutability":"view"},{"type":"function","name":"burn","inputs":[{"name":"account","type":"address","internalType":"address"},{"name":"amount","type":"uint256","internalType":"uint256"}],"outputs":[],"stateMutability":"nonpayable"},{"type":"function","name":"decimals","inputs":[],"outputs":[{"name":"","type":"uint8","internalType":"uint8"}],"stateMutability":"view"},{"type":"function","name":"eip712Domain","inputs":[],"outputs":[{"name":"fields","type":"bytes1","internalType":"bytes1"},{"name":"name","type":"string","internalType":"string"},{"name":"version","type":"string","internalType":"string"},{"name":"chainId","type":"uint256","internalType":"uint256"},{"name":"verifyingContract","type":"address","internalType":"address"},{"name":"salt","type":"bytes32","internalType":"bytes32"},{"name":"extensions","type":"uint256[]","internalType":"uint256[]"}],"stateMutability":"view"},{"type":"function","name":"mint","inputs":[{"name":"account","type":"address","internalType":"address"},{"name":"amount","type":"uint256","internalType":"uint256"}],"outputs":[],"stateMutability":"nonpayable"},{"type":"function","name":"name","inputs":[],"outputs":[{"name":"","type":"string","internalType":"string"}],"stateMutability":"view"},{"type":"function","name":"nonces","inputs":[{"name":"owner","type":"address","internalType":"address"}],"outputs":[{"name":"","type":"uint256","internalType":"uint256"}],"stateMutability":"view"},{"type":"function","name":"permit","inputs":[{"name":"owner","type":"address","internalType":"address"},{"name":"spender","type":"address","internalType":"address"},{"name":"value","type":"uint256","internalType":"uint256"},{"name":"deadline","type":"uint256","internalType":"uint256"},{"name":"v","type":"uint8","internalType":"uint8"},{"name":"r","type":"bytes32","internalType":"bytes32"},{"name":"s","type":"bytes32","internalType":"bytes32"}],"outputs":[],"stateMutability":"nonpayable"},{"type":"function","name":"symbol","inputs":[],"outputs":[{"name":"","type":"string","internalType":"string"}],"stateMutability":"view"},{"type":"function","name":"totalSupply","inputs":[],"outputs":[{"name":"","type":"uint256","internalType":"uint256"}],"stateMutability":"view"},{"type":"function","name":"transfer","inputs":[{"name":"to","type":"address","internalType":"address"},{"name":"value","type":"uint256","internalType":"uint256"}],"outputs":[{"name":"","type":"bool","internalType":"bool"}],"stateMutability":"nonpayable"},{"type":"function","name":"transferFrom","inputs":[{"name":"from","type":"address","internalType":"address"},{"name":"to","type":"address","internalType":"address"},{"name":"value","type":"uint256","internalType":"uint256"}],"outputs":[{"name":"","type":"bool","internalType":"bool"}],"stateMutability":"nonpayable"},{"type":"event","name":"Approval","inputs":[{"name":"owner","type":"address","indexed":true,"internalType":"address"},{"name":"spender","type":"address","indexed":true,"internalType":"address"},{"name":"value","type":"uint256","indexed":false,"internalType":"uint256"}],"anonymous":false},{"type":"event","name":"EIP712DomainChanged","inputs":[],"anonymous":false},{"type":"event","name":"Transfer","inputs":[{"name":"from","type":"address","indexed":true,"internalType":"address"},{"name":"to","type":"address","indexed":true,"internalType":"address"},{"name":"value","type":"uint256","indexed":false,"internalType":"uint256"}],"anonymous":false},{"type":"error","name":"ECDSAInvalidSignature","inputs":[]},{"type":"error","name":"ECDSAInvalidSignatureLength","inputs":[{"name":"length","type":"uint256","internalType":"uint256"}]},{"type":"error","name":"ECDSAInvalidSignatureS","inputs":[{"name":"s","type":"bytes32","internalType":"bytes32"}]},{"type":"error","name":"ERC20InsufficientAllowance","inputs":[{"name":"spender","type":"address","internalType":"address"},{"name":"allowance","type":"uint256","internalType":"uint256"},{"name":"needed","type":"uint256","internalType":"uint256"}]},{"type":"error","name":"ERC20InsufficientBalance","inputs":[{"name":"sender","type":"address","internalType":"address"},{"name":"balance","type":"uint256","internalType":"uint256"},{"name":"needed","type":"uint256","internalType":"uint256"}]},{"type":"error","name":"ERC20InvalidApprover","inputs":[{"name":"approver","type":"address","internalType":"address"}]},{"type":"error","name":"ERC20InvalidReceiver","inputs":[{"name":"receiver","type":"address","internalType":"address"}]},{"type":"error","name":"ERC20InvalidSender","inputs":[{"name":"sender","type":"address","internalType":"address"}]},{"type":"error","name":"ERC20InvalidSpender","inputs":[{"name":"spender","type":"address","internalType":"address"}]},{"type":"error","name":"ERC2612ExpiredSignature","inputs":[{"name":"deadline","type":"uint256","internalType":"uint256"}]},{"type":"error","name":"ERC2612InvalidSigner","inputs":[{"name":"signer","type":"address","internalType":"address"},{"name":"owner","type":"address","internalType":"address"}]},{"type":"error","name":"InvalidAccountNonce","inputs":[{"name":"account","type":"address","internalType":"address"},{"name":"currentNonce","type":"uint256","internalType":"uint256"}]},{"type":"error","name":"InvalidShortString","inputs":[]},{"type":"error","name":"StringTooLong","inputs":[{"name":"str","type":"string","internalType":"string"}]}],"bytecode":{"object":"0x610160604052346104cd576040516100186040826104d1565b600a8152602081016926b7b1b5902a37b5b2b760b11b81526040519061003f6040836104d1565b600a82526926b7b1b5902a37b5b2b760b11b6020830152604051926100656040856104d1565b60048452634d4f434b60e01b6020850152604051936100856040866104d1565b60018552603160f81b60208601908152845190946001600160401b0382116103d05760035490600182811c921680156104c3575b60208310146103b25781601f849311610455575b50602090601f83116001146103ef575f926103e4575b50508160011b915f199060031b1c1916176003555b8051906001600160401b0382116103d05760045490600182811c921680156103c6575b60208310146103b25781601f849311610344575b50602090601f83116001146102de575f926102d3575b50508160011b915f199060031b1c1916176004555b610163816104f4565b610120526101708461067b565b61014052519020918260e05251902080610100524660a0526040519060208201927f8b73c3c69bb8fe3d512ecc4cf759cc79239f7b179b0ffacaa9a75d522b39400f8452604083015260608201524660808201523060a082015260a081526101d960c0826104d1565b5190206080523060c05233156102c0576002546b033b2e3c9fd0803ce800000081018091116102ac57600255335f525f60205260405f206b033b2e3c9fd0803ce800000081540190556040516b033b2e3c9fd0803ce800000081525f7fddf252ad1be2c89b69c2b068fc378daa952ba7f163c4a11628f55a4df523b3ef60203393a360405161127090816107b4823960805181610eb5015260a05181610f72015260c05181610e86015260e05181610f0401526101005181610f2a015261012051816105b1015261014051816105da0152f35b634e487b7160e01b5f52601160045260245ffd5b63ec442f0560e01b5f525f60045260245ffd5b015190505f80610145565b60045f9081528281209350601f198516905b81811061032c5750908460019594939210610314575b505050811b0160045561015a565b01515f1960f88460031b161c191690555f8080610306565b929360206001819287860151815501950193016102f0565b60045f529091507f8a35acfbc15ff81a39ae7d344fd709f28e8600b4aa8c65c6b64bfe7fe36bd19b601f840160051c810191602085106103a8575b90601f859493920160051c01905b81811061039a575061012f565b5f815584935060010161038d565b909150819061037f565b634e487b7160e01b5f52602260045260245ffd5b91607f169161011b565b634e487b7160e01b5f52604160045260245ffd5b015190505f806100e3565b60035f9081528281209350601f198516905b81811061043d5750908460019594939210610425575b505050811b016003556100f8565b01515f1960f88460031b161c191690555f8080610417565b92936020600181928786015181550195019301610401565b60035f529091507fc2575a0e9e593c00f959f8c92f12db2869c3395a3b0502d05e2516446f71f85b601f840160051c810191602085106104b9575b90601f859493920160051c01905b8181106104ab57506100cd565b5f815584935060010161049e565b9091508190610490565b91607f16916100b9565b5f80fd5b601f909101601f19168101906001600160401b038211908210176103d057604052565b908151602081105f1461056e575090601f81511161052e57602081519101516020821061051f571790565b5f198260200360031b1b161790565b604460209160405192839163305a27a960e01b83528160048401528051918291826024860152018484015e5f828201840152601f01601f19168101030190fd5b6001600160401b0381116103d057600554600181811c91168015610671575b60208210146103b257601f811161063e575b50602092601f82116001146105dd57928192935f926105d2575b50508160011b915f199060031b1c19161760055560ff90565b015190505f806105b9565b601f1982169360055f52805f20915f5b868110610626575083600195961061060e575b505050811b0160055560ff90565b01515f1960f88460031b161c191690555f8080610600565b919260206001819286850151815501940192016105ed565b60055f52601f60205f20910160051c810190601f830160051c015b818110610666575061059f565b5f8155600101610659565b90607f169061058d565b908151602081105f146106a6575090601f81511161052e57602081519101516020821061051f571790565b6001600160401b0381116103d057600654600181811c911680156107a9575b60208210146103b257601f8111610776575b50602092601f821160011461071557928192935f9261070a575b50508160011b915f199060031b1c19161760065560ff90565b015190505f806106f1565b601f1982169360065f52805f20915f5b86811061075e5750836001959610610746575b505050811b0160065560ff90565b01515f1960f88460031b161c191690555f8080610738565b91926020600181928685015181550194019201610725565b60065f52601f60205f20910160051c810190601f830160051c015b81811061079e57506106d7565b5f8155600101610791565b90607f16906106c556fe6080806040526004361015610012575f80fd5b5f3560e01c90816306fdde0314610afd57508063095ea7b314610ab957806318160ddd14610a7e57806323b872dd146108ea578063313ce567146108b15780633644e5151461087157806340c10f191461077257806370a08231146107105780637ecebe00146106ad57806384b0196e1461057b57806395d89b411461045d5780639dc29fac14610351578063a9059cbb14610302578063d505accf146101515763dd62ed3e146100c1575f80fd5b3461014d5760407ffffffffffffffffffffffffffffffffffffffffffffffffffffffffffffffffc36011261014d576100f8610c00565b73ffffffffffffffffffffffffffffffffffffffff610115610c23565b91165f52600160205273ffffffffffffffffffffffffffffffffffffffff60405f2091165f52602052602060405f2054604051908152f35b5f80fd5b3461014d5760e07ffffffffffffffffffffffffffffffffffffffffffffffffffffffffffffffffc36011261014d57610188610c00565b610190610c23565b604435906064359260843560ff8116810361014d578442116102d65761029161028873ffffffffffffffffffffffffffffffffffffffff9283851697885f52600760205260405f20908154916001830190556040519060208201927f6e71edae12b1b97f4d1f60370fef10105fa2faae0126114a169c64845d6126c984528b6040840152878a1660608401528a608084015260a083015260c082015260c0815261023b60e082610d37565b519020610246610e6f565b90604051917f190100000000000000000000000000000000000000000000000000000000000083526002830152602282015260c43591604260a43592206110c8565b90929192611162565b168481036102a657506102a49350610f98565b005b84907f4b800e46000000000000000000000000000000000000000000000000000000005f5260045260245260445ffd5b847f62791302000000000000000000000000000000000000000000000000000000005f5260045260245ffd5b3461014d5760407ffffffffffffffffffffffffffffffffffffffffffffffffffffffffffffffffc36011261014d5761034661033c610c00565b6024359033610da5565b602060405160018152f35b3461014d5760407ffffffffffffffffffffffffffffffffffffffffffffffffffffffffffffffffc36011261014d57610388610c00565b73ffffffffffffffffffffffffffffffffffffffff6024359116801561043157805f525f60205260405f20548281106103ff576020835f947fddf252ad1be2c89b69c2b068fc378daa952ba7f163c4a11628f55a4df523b3ef938587528684520360408620558060025403600255604051908152a3005b907fe450d38c000000000000000000000000000000000000000000000000000000005f5260045260245260445260645ffd5b7f96c6fd1e000000000000000000000000000000000000000000000000000000005f525f60045260245ffd5b3461014d575f7ffffffffffffffffffffffffffffffffffffffffffffffffffffffffffffffffc36011261014d576040515f60045461049b81610c46565b808452906001811690811561053957506001146104db575b6104d7836104c381850382610d37565b604051918291602083526020830190610bbd565b0390f35b60045f9081527f8a35acfbc15ff81a39ae7d344fd709f28e8600b4aa8c65c6b64bfe7fe36bd19b939250905b80821061051f575090915081016020016104c36104b3565b919260018160209254838588010152019101909291610507565b7fffffffffffffffffffffffffffffffffffffffffffffffffffffffffffffff001660208086019190915291151560051b840190910191506104c390506104b3565b3461014d575f7ffffffffffffffffffffffffffffffffffffffffffffffffffffffffffffffffc36011261014d576106516105d57f0000000000000000000000000000000000000000000000000000000000000000611015565b6105fe7f0000000000000000000000000000000000000000000000000000000000000000611091565b602061065f604051926106118385610d37565b5f84525f3681376040519586957f0f00000000000000000000000000000000000000000000000000000000000000875260e08588015260e0870190610bbd565b908582036040870152610bbd565b4660608501523060808501525f60a085015283810360c08501528180845192838152019301915f5b82811061069657505050500390f35b835185528695509381019392810192600101610687565b3461014d5760207ffffffffffffffffffffffffffffffffffffffffffffffffffffffffffffffffc36011261014d5773ffffffffffffffffffffffffffffffffffffffff6106f9610c00565b165f526007602052602060405f2054604051908152f35b3461014d5760207ffffffffffffffffffffffffffffffffffffffffffffffffffffffffffffffffc36011261014d5773ffffffffffffffffffffffffffffffffffffffff61075c610c00565b165f525f602052602060405f2054604051908152f35b3461014d5760407ffffffffffffffffffffffffffffffffffffffffffffffffffffffffffffffffc36011261014d576107a9610c00565b73ffffffffffffffffffffffffffffffffffffffff16602435811561084557600254908082018092116108185760207fddf252ad1be2c89b69c2b068fc378daa952ba7f163c4a11628f55a4df523b3ef915f9360025584845283825260408420818154019055604051908152a3005b7f4e487b71000000000000000000000000000000000000000000000000000000005f52601160045260245ffd5b7fec442f05000000000000000000000000000000000000000000000000000000005f525f60045260245ffd5b3461014d575f7ffffffffffffffffffffffffffffffffffffffffffffffffffffffffffffffffc36011261014d5760206108a9610e6f565b604051908152f35b3461014d575f7ffffffffffffffffffffffffffffffffffffffffffffffffffffffffffffffffc36011261014d57602060405160128152f35b3461014d5760607ffffffffffffffffffffffffffffffffffffffffffffffffffffffffffffffffc36011261014d57610921610c00565b610929610c23565b6044359073ffffffffffffffffffffffffffffffffffffffff831692835f52600160205260405f2073ffffffffffffffffffffffffffffffffffffffff33165f5260205260405f20547fffffffffffffffffffffffffffffffffffffffffffffffffffffffffffffffff81106109a5575b506103469350610da5565b838110610a4a578415610a1e5733156109f257610346945f52600160205260405f2073ffffffffffffffffffffffffffffffffffffffff33165f526020528360405f20910390558461099a565b7f94280d62000000000000000000000000000000000000000000000000000000005f525f60045260245ffd5b7fe602df05000000000000000000000000000000000000000000000000000000005f525f60045260245ffd5b83907ffb8f41b2000000000000000000000000000000000000000000000000000000005f523360045260245260445260645ffd5b3461014d575f7ffffffffffffffffffffffffffffffffffffffffffffffffffffffffffffffffc36011261014d576020600254604051908152f35b3461014d5760407ffffffffffffffffffffffffffffffffffffffffffffffffffffffffffffffffc36011261014d57610346610af3610c00565b6024359033610f98565b3461014d575f7ffffffffffffffffffffffffffffffffffffffffffffffffffffffffffffffffc36011261014d575f600354610b3881610c46565b80845290600181169081156105395750600114610b5f576104d7836104c381850382610d37565b60035f9081527fc2575a0e9e593c00f959f8c92f12db2869c3395a3b0502d05e2516446f71f85b939250905b808210610ba3575090915081016020016104c36104b3565b919260018160209254838588010152019101909291610b8b565b907fffffffffffffffffffffffffffffffffffffffffffffffffffffffffffffffe0601f602080948051918291828752018686015e5f8582860101520116010190565b6004359073ffffffffffffffffffffffffffffffffffffffff8216820361014d57565b6024359073ffffffffffffffffffffffffffffffffffffffff8216820361014d57565b90600182811c92168015610c8d575b6020831014610c6057565b7f4e487b71000000000000000000000000000000000000000000000000000000005f52602260045260245ffd5b91607f1691610c55565b5f9291815491610ca683610c46565b8083529260018116908115610cfb5750600114610cc257505050565b5f9081526020812093945091925b838310610ce1575060209250010190565b600181602092949394548385870101520191019190610cd0565b905060209495507fffffffffffffffffffffffffffffffffffffffffffffffffffffffffffffff0091509291921683830152151560051b010190565b90601f7fffffffffffffffffffffffffffffffffffffffffffffffffffffffffffffffe0910116810190811067ffffffffffffffff821117610d7857604052565b7f4e487b71000000000000000000000000000000000000000000000000000000005f52604160045260245ffd5b73ffffffffffffffffffffffffffffffffffffffff169081156104315773ffffffffffffffffffffffffffffffffffffffff1691821561084557815f525f60205260405f2054818110610e3d57817fddf252ad1be2c89b69c2b068fc378daa952ba7f163c4a11628f55a4df523b3ef92602092855f525f84520360405f2055845f525f825260405f20818154019055604051908152a3565b827fe450d38c000000000000000000000000000000000000000000000000000000005f5260045260245260445260645ffd5b73ffffffffffffffffffffffffffffffffffffffff7f000000000000000000000000000000000000000000000000000000000000000016301480610f6f575b15610ed7577f000000000000000000000000000000000000000000000000000000000000000090565b60405160208101907f8b73c3c69bb8fe3d512ecc4cf759cc79239f7b179b0ffacaa9a75d522b39400f82527f000000000000000000000000000000000000000000000000000000000000000060408201527f000000000000000000000000000000000000000000000000000000000000000060608201524660808201523060a082015260a08152610f6960c082610d37565b51902090565b507f00000000000000000000000000000000000000000000000000000000000000004614610eae565b73ffffffffffffffffffffffffffffffffffffffff16908115610a1e5773ffffffffffffffffffffffffffffffffffffffff169182156109f25760207f8c5be1e5ebec7d5bd14f71427d1e84f3dd0314c0f7b2291e5b200ac8c7c3b92591835f526001825260405f20855f5282528060405f2055604051908152a3565b60ff81146110745760ff811690601f821161104c5760405191611039604084610d37565b6020808452838101919036833783525290565b7fb3512b0c000000000000000000000000000000000000000000000000000000005f5260045ffd5b5060405161108e81611087816005610c97565b0382610d37565b90565b60ff81146110b55760ff811690601f821161104c5760405191611039604084610d37565b5060405161108e81611087816006610c97565b91907f7fffffffffffffffffffffffffffffff5d576e7357a4501ddfe92f46681b20a08411611157579160209360809260ff5f9560405194855216868401526040830152606082015282805260015afa1561114c575f5173ffffffffffffffffffffffffffffffffffffffff81161561114257905f905f90565b505f906001905f90565b6040513d5f823e3d90fd5b5050505f9160039190565b600481101561120d5780611174575050565b600181036111a4577ff645eedf000000000000000000000000000000000000000000000000000000005f5260045ffd5b600281036111d857507ffce698f7000000000000000000000000000000000000000000000000000000005f5260045260245ffd5b6003146111e25750565b7fd78bce0c000000000000000000000000000000000000000000000000000000005f5260045260245ffd5b7f4e487b71000000000000000000000000000000000000000000000000000000005f52602160045260245ffdfea2646970667358221220d61769e4488a0c7b7ed0b4fa76fd06fab66ea90b827a7590ad81b083aa7c50ee64736f6c634300081e0033","linkReferences":{}},"methodIdentifiers":{"DOMAIN_SEPARATOR()":"3644e515","allowance(address,address)":"dd62ed3e","approve(address,uint256)":"095ea7b3","balanceOf(address)":"70a08231","burn(address,uint256)":"9dc29fac","decimals()":"313ce567","eip712Domain()":"84b0196e","mint(address,uint256)":"40c10f19","name()":"06fdde03","nonces(address)":"7ecebe00","permit(address,address,uint256,uint256,uint8,bytes32,bytes32)":"d505accf","symbol()":"95d89b41","totalSupply()":"18160ddd","transfer(address,uint256)":"a9059cbb","transferFrom(address,address,uint256)":"23b872dd"},"storageLayout":{"storage":[{"astId":38075,"contract":"src/mocks/ERC20Mock.sol:ERC20Mock","label":"_balances","offset":0,"slot":"0","type":"t_mapping(t_address,t_uint256)"},{"astId":38081,"contract":"src/mocks/ERC20Mock.sol:ERC20Mock","label":"_allowances","offset":0,"slot":"1","type":"t_mapping(t_address,t_mapping(t_address,t_uint256))"},{"astId":38083,"contract":"src/mocks/ERC20Mock.sol:ERC20Mock","label":"_totalSupply","offset":0,"slot":"2","type":"t_uint256"},{"astId":38085,"contract":"src/mocks/ERC20Mock.sol:ERC20Mock","label":"_name","offset":0,"slot":"3","type":"t_string_storage"},{"astId":38087,"contract":"src/mocks/ERC20Mock.sol:ERC20Mock","label":"_symbol","offset":0,"slot":"4","type":"t_string_storage"},{"astId":43359,"contract":"src/mocks/ERC20Mock.sol:ERC20Mock","label":"_nameFallback","offset":0,"slot":"5","type":"t_string_storage"},{"astId":43361,"contract":"src/mocks/ERC20Mock.sol:ERC20Mock","label":"_versionFallback","offset":0,"slot":"6","type":"t_string_storage"},{"astId":40644,"contract":"src/mocks/ERC20Mock.sol:ERC20Mock","label":"_nonces","offset":0,"slot":"7","type":"t_mapping(t_address,t_uint256)"}],"types":{"t_address":{"encoding":"inplace","label":"address","numberOfBytes":"20"},"t_mapping(t_address,t_mapping(t_address,t_uint256))":{"encoding":"mapping","key":"t_address","label":"mapping(address => mapping(address => uint256))","numberOfBytes":"32","value":"t_mapping(t_address,t_uint256)"},"t_mapping(t_address,t_uint256)":{"encoding":"mapping","key":"t_address","label":"mapping(address => uint256)","numberOfBytes":"32","value":"t_uint256"},"t_string_storage":{"encoding":"bytes","label":"string","numberOfBytes":"32"},"t_uint256":{"encoding":"inplace","label":"uint256","numberOfBytes":"32"}}},"id":83}