{"src/ERC20Sweeper.sol":{"ERC20Sweeper":{"abi":[{"type":"function","name":"sweepERC20","inputs":[{"name":"token","type":"address","internalType":"contract IERC20"},{"name":"to","type":"address","internalType":"address"}],"outputs":[],"stateMutability":"nonpayable"},{"type":"function","name":"sweepERC7914","inputs":[{"name":"to","type":"address","internalType":"address"}],"outputs":[],"stateMutability":"nonpayable"},{"type":"error","name":"SafeERC20FailedOperation","inputs":[{"name":"token","type":"address","internalType":"address"}]}],"userdoc":{},"devdoc":{},"evm":{"bytecode":{"object":"60808060405234601557610441908161001a8239f35b5f80fdfe60806040526004361015610011575f80fd5b5f3560e01c80631d7392a6146100ad5763582515c71461002f575f80fd5b346100a95760407ffffffffffffffffffffffffffffffffffffffffffffffffffffffffffffffffc3601126100a95760043573ffffffffffffffffffffffffffffffffffffffff811681036100a95760243573ffffffffffffffffffffffffffffffffffffffff811681036100a9576100a7916102b6565b005b5f80fd5b346100a95760207ffffffffffffffffffffffffffffffffffffffffffffffffffffffffffffffffc3601126100a95760043573ffffffffffffffffffffffffffffffffffffffff811681036100a9576100a790610173565b90601f7fffffffffffffffffffffffffffffffffffffffffffffffffffffffffffffffe0910116810190811067ffffffffffffffff82111761014657604052565b7f4e487b71000000000000000000000000000000000000000000000000000000005f52604160045260245ffd5b333180156102b25773ffffffffffffffffffffffffffffffffffffffff604051927f789ff70100000000000000000000000000000000000000000000000000000000845233600485015216602483015260448201526020816064815f335af19081156102a7575f9161026c575b50156101e857565b60846040517f08c379a000000000000000000000000000000000000000000000000000000000815260206004820152602360248201527f45524337393134207472616e7366657246726f6d4e617469766520726576657260448201527f74656400000000000000000000000000000000000000000000000000000000006064820152fd5b90506020813d60201161029f575b8161028760209383610105565b810103126100a9575180151581036100a9575f6101e0565b3d915061027a565b6040513d5f823e3d90fd5b5050565b9073ffffffffffffffffffffffffffffffffffffffff8216916040517f70a08231000000000000000000000000000000000000000000000000000000008152336004820152602081602481875afa9081156102a7575f916103d9575b5080156103d35773ffffffffffffffffffffffffffffffffffffffff604051937f23b872dd000000000000000000000000000000000000000000000000000000005f52336004521660245260445260205f60648180855af19060015f51148216156103b4575b50906040525f606052156103895750565b7f5274afe7000000000000000000000000000000000000000000000000000000005f5260045260245ffd5b60018215166103ca573b15153d1516165f610378565b823d5f823e3d90fd5b50505050565b90506020813d602011610403575b816103f460209383610105565b810103126100a957515f610312565b3d91506103e756fea2646970667358221220a47dac45343685611e97202b9f6811fe3316dab4def748ae21f5a52ac8878b4364736f6c634300081e0033","linkReferences":{}},"methodIdentifiers":{"sweepERC20(address,address)":"582515c7","sweepERC7914(address)":"1d7392a6"}}}}}