{"abi":[{"type":"constructor","inputs":[],"stateMutability":"nonpayable"},{"type":"function","name":"DEFAULT_ADMIN_ROLE","inputs":[],"outputs":[{"name":"","type":"bytes32","internalType":"bytes32"}],"stateMutability":"view"},{"type":"function","name":"UPGRADE_INTERFACE_VERSION","inputs":[],"outputs":[{"name":"","type":"string","internalType":"string"}],"stateMutability":"view"},{"type":"function","name":"deposit","inputs":[{"name":"request","type":"tuple","internalType":"struct Request","components":[{"name":"sources","type":"tuple[]","internalType":"struct SourcePair[]","components":[{"name":"universe","type":"uint8","internalType":"enum Universe"},{"name":"chainID","type":"uint256","internalType":"uint256"},{"name":"contractAddress","type":"bytes32","internalType":"bytes32"},{"name":"value","type":"uint256","internalType":"uint256"}]},{"name":"destinationUniverse","type":"uint8","internalType":"enum Universe"},{"name":"destinationChainID","type":"uint256","internalType":"uint256"},{"name":"recipientAddress","type":"bytes32","internalType":"bytes32"},{"name":"destinations","type":"tuple[]","internalType":"struct DestinationPair[]","components":[{"name":"contractAddress","type":"bytes32","internalType":"bytes32"},{"name":"value","type":"uint256","internalType":"uint256"}]},{"name":"nonce","type":"uint256","internalType":"uint256"},{"name":"expiry","type":"uint256","internalType":"uint256"},{"name":"parties","type":"tuple[]","internalType":"struct Party[]","components":[{"name":"universe","type":"uint8","internalType":"enum Universe"},{"name":"address_","type":"bytes32","internalType":"bytes32"}]}]},{"name":"signature","type":"bytes","internalType":"bytes"},{"name":"chainIndex","type":"uint256","internalType":"uint256"}],"outputs":[],"stateMutability":"payable"},{"type":"function","name":"depositNonce","inputs":[{"name":"","type":"uint256","internalType":"uint256"}],"outputs":[{"name":"","type":"bool","internalType":"bool"}],"stateMutability":"view"},{"type":"function","name":"depositRouter","inputs":[{"name":"action","type":"tuple","internalType":"struct Action","components":[{"name":"sources","type":"tuple[]","internalType":"struct SourcePair[]","components":[{"name":"universe","type":"uint8","internalType":"enum Universe"},{"name":"chainID","type":"uint256","internalType":"uint256"},{"name":"contractAddress","type":"bytes32","internalType":"bytes32"},{"name":"value","type":"uint256","internalType":"uint256"}]},{"name":"parties","type":"tuple[]","internalType":"struct Party[]","components":[{"name":"universe","type":"uint8","internalType":"enum Universe"},{"name":"address_","type":"bytes32","internalType":"bytes32"}]},{"name":"recipientAddress","type":"bytes32","internalType":"bytes32"},{"name":"destinationCaip2namespace","type":"bytes32","internalType":"bytes32"},{"name":"destinationContractAddress","type":"bytes32","internalType":"bytes32"},{"name":"destinationMinTokenAmount","type":"uint256","internalType":"uint256"},{"name":"destinationCaip2chainId","type":"uint256","internalType":"uint256"},{"name":"nonce","type":"uint64","internalType":"uint64"},{"name":"deadline","type":"uint64","internalType":"uint64"}]},{"name":"signature","type":"bytes","internalType":"bytes"},{"name":"chainIndex","type":"uint256","internalType":"uint256"},{"name":"route","type":"uint8","internalType":"enum Route"},{"name":"routeData","type":"bytes","internalType":"bytes"}],"outputs":[],"stateMutability":"payable"},{"type":"function","name":"fillNonce","inputs":[{"name":"","type":"uint256","internalType":"uint256"}],"outputs":[{"name":"","type":"bool","internalType":"bool"}],"stateMutability":"view"},{"type":"function","name":"fulfil","inputs":[{"name":"request","type":"tuple","internalType":"struct Request","components":[{"name":"sources","type":"tuple[]","internalType":"struct SourcePair[]","components":[{"name":"universe","type":"uint8","internalType":"enum Universe"},{"name":"chainID","type":"uint256","internalType":"uint256"},{"name":"contractAddress","type":"bytes32","internalType":"bytes32"},{"name":"value","type":"uint256","internalType":"uint256"}]},{"name":"destinationUniverse","type":"uint8","internalType":"enum Universe"},{"name":"destinationChainID","type":"uint256","internalType":"uint256"},{"name":"recipientAddress","type":"bytes32","internalType":"bytes32"},{"name":"destinations","type":"tuple[]","internalType":"struct DestinationPair[]","components":[{"name":"contractAddress","type":"bytes32","internalType":"bytes32"},{"name":"value","type":"uint256","internalType":"uint256"}]},{"name":"nonce","type":"uint256","internalType":"uint256"},{"name":"expiry","type":"uint256","internalType":"uint256"},{"name":"parties","type":"tuple[]","internalType":"struct Party[]","components":[{"name":"universe","type":"uint8","internalType":"enum Universe"},{"name":"address_","type":"bytes32","internalType":"bytes32"}]}]},{"name":"signature","type":"bytes","internalType":"bytes"}],"outputs":[],"stateMutability":"payable"},{"type":"function","name":"getRoleAdmin","inputs":[{"name":"role","type":"bytes32","internalType":"bytes32"}],"outputs":[{"name":"","type":"bytes32","internalType":"bytes32"}],"stateMutability":"view"},{"type":"function","name":"grantRole","inputs":[{"name":"role","type":"bytes32","internalType":"bytes32"},{"name":"account","type":"address","internalType":"address"}],"outputs":[],"stateMutability":"nonpayable"},{"type":"function","name":"hasRole","inputs":[{"name":"role","type":"bytes32","internalType":"bytes32"},{"name":"account","type":"address","internalType":"address"}],"outputs":[{"name":"","type":"bool","internalType":"bool"}],"stateMutability":"view"},{"type":"function","name":"initialize","inputs":[{"name":"admin","type":"address","internalType":"address"}],"outputs":[],"stateMutability":"nonpayable"},{"type":"function","name":"proxiableUUID","inputs":[],"outputs":[{"name":"","type":"bytes32","internalType":"bytes32"}],"stateMutability":"view"},{"type":"function","name":"renounceRole","inputs":[{"name":"role","type":"bytes32","internalType":"bytes32"},{"name":"callerConfirmation","type":"address","internalType":"address"}],"outputs":[],"stateMutability":"nonpayable"},{"type":"function","name":"requestState","inputs":[{"name":"","type":"bytes32","internalType":"bytes32"}],"outputs":[{"name":"","type":"uint8","internalType":"enum RFFState"}],"stateMutability":"view"},{"type":"function","name":"revokeRole","inputs":[{"name":"role","type":"bytes32","internalType":"bytes32"},{"name":"account","type":"address","internalType":"address"}],"outputs":[],"stateMutability":"nonpayable"},{"type":"function","name":"router","inputs":[],"outputs":[{"name":"","type":"address","internalType":"contract IRouter"}],"stateMutability":"view"},{"type":"function","name":"setRouter","inputs":[{"name":"_router","type":"address","internalType":"address"}],"outputs":[],"stateMutability":"nonpayable"},{"type":"function","name":"settle","inputs":[{"name":"settleData","type":"tuple","internalType":"struct SettleData","components":[{"name":"universe","type":"uint8","internalType":"enum Universe"},{"name":"chainID","type":"uint256","internalType":"uint256"},{"name":"solvers","type":"address[]","internalType":"address[]"},{"name":"contractAddresses","type":"address[]","internalType":"address[]"},{"name":"amounts","type":"uint256[]","internalType":"uint256[]"},{"name":"nonce","type":"uint256","internalType":"uint256"}]},{"name":"signature","type":"bytes","internalType":"bytes"}],"outputs":[],"stateMutability":"nonpayable"},{"type":"function","name":"settleNonce","inputs":[{"name":"","type":"uint256","internalType":"uint256"}],"outputs":[{"name":"","type":"bool","internalType":"bool"}],"stateMutability":"view"},{"type":"function","name":"supportsInterface","inputs":[{"name":"interfaceId","type":"bytes4","internalType":"bytes4"}],"outputs":[{"name":"","type":"bool","internalType":"bool"}],"stateMutability":"view"},{"type":"function","name":"upgradeToAndCall","inputs":[{"name":"newImplementation","type":"address","internalType":"address"},{"name":"data","type":"bytes","internalType":"bytes"}],"outputs":[],"stateMutability":"payable"},{"type":"function","name":"verifyRequestSignature","inputs":[{"name":"request","type":"tuple","internalType":"struct Request","components":[{"name":"sources","type":"tuple[]","internalType":"struct SourcePair[]","components":[{"name":"universe","type":"uint8","internalType":"enum Universe"},{"name":"chainID","type":"uint256","internalType":"uint256"},{"name":"contractAddress","type":"bytes32","internalType":"bytes32"},{"name":"value","type":"uint256","internalType":"uint256"}]},{"name":"destinationUniverse","type":"uint8","internalType":"enum Universe"},{"name":"destinationChainID","type":"uint256","internalType":"uint256"},{"name":"recipientAddress","type":"bytes32","internalType":"bytes32"},{"name":"destinations","type":"tuple[]","internalType":"struct DestinationPair[]","components":[{"name":"contractAddress","type":"bytes32","internalType":"bytes32"},{"name":"value","type":"uint256","internalType":"uint256"}]},{"name":"nonce","type":"uint256","internalType":"uint256"},{"name":"expiry","type":"uint256","internalType":"uint256"},{"name":"parties","type":"tuple[]","internalType":"struct Party[]","components":[{"name":"universe","type":"uint8","internalType":"enum Universe"},{"name":"address_","type":"bytes32","internalType":"bytes32"}]}]},{"name":"signature","type":"bytes","internalType":"bytes"}],"outputs":[{"name":"","type":"bool","internalType":"bool"},{"name":"","type":"bytes32","internalType":"bytes32"}],"stateMutability":"pure"},{"type":"function","name":"winningSolver","inputs":[{"name":"","type":"bytes32","internalType":"bytes32"}],"outputs":[{"name":"","type":"address","internalType":"address"}],"stateMutability":"view"},{"type":"event","name":"Deposit","inputs":[{"name":"requestHash","type":"bytes32","indexed":true,"internalType":"bytes32"},{"name":"from","type":"address","indexed":false,"internalType":"address"}],"anonymous":false},{"type":"event","name":"DepositAndRoute","inputs":[{"name":"requestHash","type":"bytes32","indexed":true,"internalType":"bytes32"},{"name":"from","type":"address","indexed":false,"internalType":"address"},{"name":"route","type":"uint8","indexed":false,"internalType":"enum Route"}],"anonymous":false},{"type":"event","name":"Fulfilment","inputs":[{"name":"requestHash","type":"bytes32","indexed":true,"internalType":"bytes32"},{"name":"from","type":"address","indexed":false,"internalType":"address"},{"name":"solver","type":"address","indexed":false,"internalType":"address"}],"anonymous":false},{"type":"event","name":"Initialized","inputs":[{"name":"version","type":"uint64","indexed":false,"internalType":"uint64"}],"anonymous":false},{"type":"event","name":"RoleAdminChanged","inputs":[{"name":"role","type":"bytes32","indexed":true,"internalType":"bytes32"},{"name":"previousAdminRole","type":"bytes32","indexed":true,"internalType":"bytes32"},{"name":"newAdminRole","type":"bytes32","indexed":true,"internalType":"bytes32"}],"anonymous":false},{"type":"event","name":"RoleGranted","inputs":[{"name":"role","type":"bytes32","indexed":true,"internalType":"bytes32"},{"name":"account","type":"address","indexed":true,"internalType":"address"},{"name":"sender","type":"address","indexed":true,"internalType":"address"}],"anonymous":false},{"type":"event","name":"RoleRevoked","inputs":[{"name":"role","type":"bytes32","indexed":true,"internalType":"bytes32"},{"name":"account","type":"address","indexed":true,"internalType":"address"},{"name":"sender","type":"address","indexed":true,"internalType":"address"}],"anonymous":false},{"type":"event","name":"RouterSet","inputs":[{"name":"newRouter","type":"address","indexed":true,"internalType":"address"}],"anonymous":false},{"type":"event","name":"Settle","inputs":[{"name":"nonce","type":"uint256","indexed":true,"internalType":"uint256"},{"name":"solver","type":"address[]","indexed":false,"internalType":"address[]"},{"name":"token","type":"address[]","indexed":false,"internalType":"address[]"},{"name":"amount","type":"uint256[]","indexed":false,"internalType":"uint256[]"}],"anonymous":false},{"type":"event","name":"Upgraded","inputs":[{"name":"implementation","type":"address","indexed":true,"internalType":"address"}],"anonymous":false},{"type":"error","name":"AccessControlBadConfirmation","inputs":[]},{"type":"error","name":"AccessControlUnauthorizedAccount","inputs":[{"name":"account","type":"address","internalType":"address"},{"name":"neededRole","type":"bytes32","internalType":"bytes32"}]},{"type":"error","name":"AddressEmptyCode","inputs":[{"name":"target","type":"address","internalType":"address"}]},{"type":"error","name":"ECDSAInvalidSignature","inputs":[]},{"type":"error","name":"ECDSAInvalidSignatureLength","inputs":[{"name":"length","type":"uint256","internalType":"uint256"}]},{"type":"error","name":"ECDSAInvalidSignatureS","inputs":[{"name":"s","type":"bytes32","internalType":"bytes32"}]},{"type":"error","name":"ERC1967InvalidImplementation","inputs":[{"name":"implementation","type":"address","internalType":"address"}]},{"type":"error","name":"ERC1967NonPayable","inputs":[]},{"type":"error","name":"FailedCall","inputs":[]},{"type":"error","name":"InvalidInitialization","inputs":[]},{"type":"error","name":"NotInitializing","inputs":[]},{"type":"error","name":"ReentrancyGuardReentrantCall","inputs":[]},{"type":"error","name":"SafeERC20FailedOperation","inputs":[{"name":"token","type":"address","internalType":"address"}]},{"type":"error","name":"UUPSUnauthorizedCallContext","inputs":[]},{"type":"error","name":"UUPSUnsupportedProxiableUUID","inputs":[{"name":"slot","type":"bytes32","internalType":"bytes32"}]}],"bytecode":{"object":"0x60a080604052346100c257306080525f516020613cdb5f395f51905f525460ff8160401c166100b3576002600160401b03196001600160401b03821601610060575b604051613c1490816100c782396080518181816118df01526119d20152f35b6001600160401b0319166001600160401b039081175f516020613cdb5f395f51905f525581527fc7f505b2f371ae2175ee4913f4499e1f2633a7b5936321eed1cdaeb6115181d290602090a15f80610041565b63f92ee8a960e01b5f5260045ffd5b5f80fdfe6080806040526004361015610012575f80fd5b5f905f3560e01c90816301ffc9a7146127515750806305b90773146126d1578063248a9ca3146126615780632b653696146122a55780632ca166c4146122585780632f2ff15d146121dd57806336568abe14612155578063411e1fee14611cd45780634f1ef2861461195757806352d1902d1461189a57806385c0ac5b1461184d57806387e2e3aa146118005780638bc3d2901461124a5780638d9b91a3146111ec57806391d14854146111585780639d1f6adf14610726578063a217fddf146106ec578063ad3cb1cc1461063c578063c0d78655146104b5578063c4d66de81461023b578063d547741f146101b6578063e3175f5d1461016f5763f887ea401461011b575f80fd5b3461016c57807ffffffffffffffffffffffffffffffffffffffffffffffffffffffffffffffffc36011261016c57602073ffffffffffffffffffffffffffffffffffffffff60055416604051908152f35b80fd5b503461016c5760406101a861018336612881565b6101a261019d61019660e08601866129c3565b3691612a17565b613045565b91613101565b825191151582526020820152f35b503461016c5760407ffffffffffffffffffffffffffffffffffffffffffffffffffffffffffffffffc36011261016c576102376004356101f461283b565b9061023261022d825f527f02dd7bc7dec4dceedda775e58dd541e08a116c6c53815c0bd028192f7b626800602052600160405f20015490565b6133dc565b61375f565b5080f35b503461016c5760207ffffffffffffffffffffffffffffffffffffffffffffffffffffffffffffffffc36011261016c5761027361285e565b7ff0c57e16840df040f15088dc2f81fe391c3923bec73e23a9662efc9c229c6a00549060ff8260401c16159167ffffffffffffffff8116801590816104ad575b60011490816104a3575b15908161049a575b50610472578260017fffffffffffffffffffffffffffffffffffffffffffffffff00000000000000008316177ff0c57e16840df040f15088dc2f81fe391c3923bec73e23a9662efc9c229c6a005561041d575b5060ff7ff0c57e16840df040f15088dc2f81fe391c3923bec73e23a9662efc9c229c6a005460401c16156103f5578061035361035992613462565b50613549565b506103615780f35b7fffffffffffffffffffffffffffffffffffffffffffffff00ffffffffffffffff7ff0c57e16840df040f15088dc2f81fe391c3923bec73e23a9662efc9c229c6a0054167ff0c57e16840df040f15088dc2f81fe391c3923bec73e23a9662efc9c229c6a00557fc7f505b2f371ae2175ee4913f4499e1f2633a7b5936321eed1cdaeb6115181d2602060405160018152a180f35b6004837fd7e6bcf8000000000000000000000000000000000000000000000000000000008152fd5b7fffffffffffffffffffffffffffffffffffffffffffffff0000000000000000001668010000000000000001177ff0c57e16840df040f15088dc2f81fe391c3923bec73e23a9662efc9c229c6a00555f610318565b6004847ff92ee8a9000000000000000000000000000000000000000000000000000000008152fd5b9050155f6102c5565b303b1591506102bd565b8491506102b3565b503461016c5760207ffffffffffffffffffffffffffffffffffffffffffffffffffffffffffffffffc36011261016c576104ed61285e565b8180527f02dd7bc7dec4dceedda775e58dd541e08a116c6c53815c0bd028192f7b6268006020526040822073ffffffffffffffffffffffffffffffffffffffff33165f5260205260ff60405f2054161561060c5773ffffffffffffffffffffffffffffffffffffffff1680156105ae57807fffffffffffffffffffffffff000000000000000000000000000000000000000060055416176005557fc6b438e6a8a59579ce6a4406cbd203b740e0d47b458aae6596339bcd40c40d158280a280f35b60646040517f08c379a000000000000000000000000000000000000000000000000000000000815260206004820152601360248201527f5661756c743a205a65726f2061646472657373000000000000000000000000006044820152fd5b6044827fe2517d3f0000000000000000000000000000000000000000000000000000000081523360045280602452fd5b503461016c57807ffffffffffffffffffffffffffffffffffffffffffffffffffffffffffffffffc36011261016c57604080516106798282612912565b600581527fffffffffffffffffffffffffffffffffffffffffffffffffffffffffffffffe0601f602083017f352e302e3000000000000000000000000000000000000000000000000000000081528451958694602086525180928160208801528787015e85828601015201168101030190f35b503461016c57807ffffffffffffffffffffffffffffffffffffffffffffffffffffffffffffffffc36011261016c57602090604051908152f35b5060a07ffffffffffffffffffffffffffffffffffffffffffffffffffffffffffffffffc360112610e155760043567ffffffffffffffff8111610e1557806004018136036101207ffffffffffffffffffffffffffffffffffffffffffffffffffffffffffffffffc820112610e155760243567ffffffffffffffff8111610e15576107b590369060040161280d565b909360443593606435936002851015610e155760843567ffffffffffffffff8111610e15576107e890369060040161280d565b6107f3939193612fbd565b73ffffffffffffffffffffffffffffffffffffffff60055416156110fa57602485019061082661019d61019684866129c3565b93604051926020840191602083526101608501917fffffffffffffffffffffffffffffffffffffffffffffffffffffffffffffffdd873592019182811215610e15578a016024600482013591019367ffffffffffffffff8211610e15578160071b36038513610e1557819061012060408a015252610180870193905f5b8181106110df575050503590811215610e15578801906024600483013592019167ffffffffffffffff8111610e15578060061b36038313610e15578582037fffffffffffffffffffffffffffffffffffffffffffffffffffffffffffffffc001606087015261091192613922565b956044880135938460808201526064890135978860a083015260848a01359a8b60c084015260a48b0135948560e085015260c48c013593808d8661010083015260e4019d61095e8f613a73565b67ffffffffffffffff16610120830152610104019461097c86613a73565b67ffffffffffffffff16610140830152037fffffffffffffffffffffffffffffffffffffffffffffffffffffffffffffffe0810182526109bc9082612912565b51902060405160208101917f19457468657265756d205369676e6564204d6573736167653a0a3332000000008352603c820152603c81526109fe605c82612912565b5190209e8f913690610a0f9261298d565b610a1891613972565b919e91610a24916139ac565b73ffffffffffffffffffffffffffffffffffffffff891673ffffffffffffffffffffffffffffffffffffffff819f1614610a5d90612ab0565b80610a688980612b15565b610a729291612b69565b602001354614610a8190612ba6565b80610a8c8980612b15565b610a969291612b69565b356004811015610e1557610ab390610aad81612c0b565b15612c15565b67ffffffffffffffff610ac58c612f9b565b165f526002602052610ade60ff60405f20541615612c7a565b610ae782612f9b565b67ffffffffffffffff4291161115611081578e67ffffffffffffffff610b0c8d612f9b565b165f52600260205260405f2060017fffffffffffffffffffffffffffffffffffffffffffffffffffffffffffffff008254161790555f525f60205260405f2060017fffffffffffffffffffffffffffffffffffffffffffffffffffffffffffffff008254161790555f986040610b8c83610b868c80612b15565b90612b69565b0135610e4657508798508080610ba48a809a9b612b15565b610bae9291612b69565b60600135610bbd348214612d7e565b99610be7610bf593610b866040610bde610bef96610b866060975b80612b15565b01359b80612b15565b01359b612f9b565b91612f9b565b9160405196610120880188811067ffffffffffffffff821117610e195760405287526020870197885260408701998a52606087019b8c526080870194855260a087019a8b5260c0870190815267ffffffffffffffff60e088019216825267ffffffffffffffff61010088019316835273ffffffffffffffffffffffffffffffffffffffff600554169a8b3b15610e155786956040519d8e9c8d9b8c9b7f7ac15ec5000000000000000000000000000000000000000000000000000000008d525160048d01525160248c01525160448b01525160648a01525160848901525160a48801525160c48701525167ffffffffffffffff1660e48601525167ffffffffffffffff166101048501526101248401610d0e908b612fb0565b6101448401610160905281610164850152610184840137808201610184015f9052601f017fffffffffffffffffffffffffffffffffffffffffffffffffffffffffffffffe01681010361018401915a945f95f18015610e0a57610dcb575b507f817ea9627ae9e61afe62fc4830383a143b6effa688b1aa212104f734c79815f891610da460409283519283526020830190612fb0565ba2807f9b779b17422d0df92223018b32b4d1fa46e071723d6817e2486d003becc55f005d80f35b604091945091610dfc5f7f817ea9627ae9e61afe62fc4830383a143b6effa688b1aa212104f734c79815f894612912565b610da45f9592505091610d6c565b6040513d5f823e3d90fd5b5f80fd5b7f4e487b71000000000000000000000000000000000000000000000000000000005f52604160045260245ffd5b73ffffffffffffffffffffffffffffffffffffffff6040610e6d84610b868d809d9e612b15565b01351690604051907f70a08231000000000000000000000000000000000000000000000000000000008252306004830152602082602481865afa918215610e0a578a85915f94611047575b50610ecd610ed89392610b8683606094612b15565b013590309085613306565b604051907f70a08231000000000000000000000000000000000000000000000000000000008252306004830152602082602481865afa8015610e0a575f90611013575b610f259250612d44565b6060610f3584610b868c80612b15565b013503610f8e576060610be783610b866040610bde610bf597610b868f610f89610bef9a73ffffffffffffffffffffffffffffffffffffffff600554168b610f8187610b868780612b15565b013591613867565b610bd8565b6040517f08c379a000000000000000000000000000000000000000000000000000000000815260206004820152602b60248201527f5661756c743a206661696c656420746f207472616e736665722074686520736f60448201527f7572636520616d6f756e740000000000000000000000000000000000000000006064820152608490fd5b506020823d60201161103f575b8161102d60209383612912565b81010312610e1557610f259151610f1b565b3d9150611020565b92935050506020813d602011611079575b8161106560209383612912565b81010312610e15575190838a610ecd610eb8565b3d9150611058565b60646040517f08c379a000000000000000000000000000000000000000000000000000000000815260206004820152601560248201527f5661756c743a20416374696f6e206578706972656400000000000000000000006044820152fd5b90919460806110f0600192886138e6565b96019291016108a3565b60646040517f08c379a000000000000000000000000000000000000000000000000000000000815260206004820152601560248201527f5661756c743a20526f75746572206e6f742073657400000000000000000000006044820152fd5b34610e155760407ffffffffffffffffffffffffffffffffffffffffffffffffffffffffffffffffc360112610e155761118f61283b565b6004355f527f02dd7bc7dec4dceedda775e58dd541e08a116c6c53815c0bd028192f7b62680060205273ffffffffffffffffffffffffffffffffffffffff60405f2091165f52602052602060ff60405f2054166040519015158152f35b34610e155760207ffffffffffffffffffffffffffffffffffffffffffffffffffffffffffffffffc360112610e15576004355f526001602052602073ffffffffffffffffffffffffffffffffffffffff60405f205416604051908152f35b34610e155760407ffffffffffffffffffffffffffffffffffffffffffffffffffffffffffffffffc360112610e155760043567ffffffffffffffff8111610e15578060040160c07ffffffffffffffffffffffffffffffffffffffffffffffffffffffffffffffffc8336030112610e155760243567ffffffffffffffff8111610e15576112db90369060040161280d565b6112e6929192612fbd565b8135906004821015610e1557602485013560448601926113068486612e87565b93909660648901946113188689612e87565b909960848c019b6113298d8c612e87565b909160a401359c60405194859460208601976113448c612c0b565b8b89528c60408801526060870160c0905260e087019061136392612edb565b908582037fffffffffffffffffffffffffffffffffffffffffffffffffffffffffffffffe001608087015261139792612edb565b908382037fffffffffffffffffffffffffffffffffffffffffffffffffffffffffffffffe00160a08501526113cb92612f2d565b8b60c0830152037fffffffffffffffffffffffffffffffffffffffffffffffffffffffffffffffe0810182526114019082612912565b51902060405160208101917f19457468657265756d205369676e6564204d6573736167653a0a3332000000008352603c820152603c8152611443605c82612912565b5190209136906114529261298d565b61145b91613972565b611464916139ac565b73ffffffffffffffffffffffffffffffffffffffff165f9081527f7b2d07433cd628df850bed1eed507d5e8f64202ce1e72ef7fa0066dc2541b03d602052604090205460ff16156117a2576114b98486612e87565b90506114c58487612e87565b91905003611744576114d78486612e87565b90506114e38887612e87565b919050036116e65761151261151b92875f52600460205261150b60ff60405f20541615612c7a565b4614612ba6565b610aad81612c0b565b835f52600460205260405f2060017fffffffffffffffffffffffffffffffffffffffffffffffffffffffffffffff008254161790555f5b61155c8385612e87565b905081101561163c57808385888373ffffffffffffffffffffffffffffffffffffffff61159d6115986001986115928b88612e87565b90612f6a565b612f7a565b166115e3575f836115cb836115928497966115c56115988799986115926115dd9d8a9b612e87565b94612e87565b35905af16115d7612df3565b50612e22565b01611552565b61163793506116109150611598906115928873ffffffffffffffffffffffffffffffffffffffff95612e87565b1661162261159884611592898b612e87565b611630846115928c8b612e87565b3591613867565b6115dd565b50906116be857f8996e5493e8a577f6cd1a24c33390f177ea739f9cd962b906dc485c264ba8b29946116b06116886116776116809684612e87565b96909784612e87565b949093612e87565b9290936116a260405198899860608a5260608a0191612edb565b918783036020890152612edb565b918483036040860152612f2d565b0390a25f7f9b779b17422d0df92223018b32b4d1fa46e071723d6817e2486d003becc55f005d005b60646040517f08c379a000000000000000000000000000000000000000000000000000000000815260206004820152601760248201527f616d6f756e7473206c656e677468206d69736d617463680000000000000000006044820152fd5b60646040517f08c379a000000000000000000000000000000000000000000000000000000000815260206004820152601660248201527f746f6b656e73206c656e677468206d69736d61746368000000000000000000006044820152fd5b60646040517f08c379a000000000000000000000000000000000000000000000000000000000815260206004820152601860248201527f5661756c743a20496e76616c6964207369676e617475726500000000000000006044820152fd5b34610e155760207ffffffffffffffffffffffffffffffffffffffffffffffffffffffffffffffffc360112610e15576004355f526004602052602060ff60405f2054166040519015158152f35b34610e155760207ffffffffffffffffffffffffffffffffffffffffffffffffffffffffffffffffc360112610e15576004355f526002602052602060ff60405f2054166040519015158152f35b34610e15575f7ffffffffffffffffffffffffffffffffffffffffffffffffffffffffffffffffc360112610e155773ffffffffffffffffffffffffffffffffffffffff7f000000000000000000000000000000000000000000000000000000000000000016300361192f5760206040517f360894a13ba1a3210667c828492db98dca3e2076cc3735a920a3ca505d382bbc8152f35b7fe07c8dba000000000000000000000000000000000000000000000000000000005f5260045ffd5b60407ffffffffffffffffffffffffffffffffffffffffffffffffffffffffffffffffc360112610e155761198961285e565b60243567ffffffffffffffff8111610e155736602382011215610e15576119ba90369060248160040135910161298d565b9073ffffffffffffffffffffffffffffffffffffffff7f000000000000000000000000000000000000000000000000000000000000000016803014908115611c92575b5061192f57335f9081527fab71e3f32666744d246edff3f96e4bdafee2e9867098cdd118a979a7464786a8602052604090205460ff1615611c425773ffffffffffffffffffffffffffffffffffffffff8116916040517f52d1902d000000000000000000000000000000000000000000000000000000008152602081600481875afa5f9181611c0e575b50611ab857837f4c9c8ce3000000000000000000000000000000000000000000000000000000005f5260045260245ffd5b807f360894a13ba1a3210667c828492db98dca3e2076cc3735a920a3ca505d382bbc859203611be35750823b15611bb857807fffffffffffffffffffffffff00000000000000000000000000000000000000007f360894a13ba1a3210667c828492db98dca3e2076cc3735a920a3ca505d382bbc5416177f360894a13ba1a3210667c828492db98dca3e2076cc3735a920a3ca505d382bbc557fbc7cd75a20ee27fd9adebab32041f755214dbc6bffa90cc0225b39da2e5c2d3b5f80a2805115611b8757611b8591613a88565b005b505034611b9057005b7fb398979f000000000000000000000000000000000000000000000000000000005f5260045ffd5b7f4c9c8ce3000000000000000000000000000000000000000000000000000000005f5260045260245ffd5b7faa1d49a4000000000000000000000000000000000000000000000000000000005f5260045260245ffd5b9091506020813d602011611c3a575b81611c2a60209383612912565b81010312610e1557519085611a87565b3d9150611c1d565b7fe2517d3f000000000000000000000000000000000000000000000000000000005f52336004527f189ab7a9244df0848122154315af71fe140f3db0fe014031783b0946b8c9d2e360245260445ffd5b905073ffffffffffffffffffffffffffffffffffffffff7f360894a13ba1a3210667c828492db98dca3e2076cc3735a920a3ca505d382bbc54161415836119fd565b611d0a611d11611ce336612881565b93908290611cef612fbd565b611d0261019d61019660e08501856129c3565b958691613101565b9290612ab0565b611d2046604083013514612ba6565b60208101356004811015610e155790611d3d8492610aad81612c0b565b60a081013590815f526003602052611d5c60ff60405f20541615612c7a565b611d6b4260c083013511612cdf565b73ffffffffffffffffffffffffffffffffffffffff606082013516915f52600360205260405f2060017fffffffffffffffffffffffffffffffffffffffffffffffffffffffffffffff00825416179055835f525f60205260405f2060027fffffffffffffffffffffffffffffffffffffffffffffffffffffffffffffff00825416179055835f52600160205260405f20337fffffffffffffffffffffffff000000000000000000000000000000000000000082541617905534935f60808301955b611e3687856129c3565b90508210156120c8579086849392611e5883611e5284886129c3565b90612de3565b35611ee0575f8080806020611ecb88611e5289611ec5611ed89a8f611ebd60019f9e611e528184611e9d8d611e938d611e528198849b6129c3565b0135881015612d7e565b611eb886611eaf86611e5286866129c3565b01351515612d7e565b6129c3565b013590612d44565b9d6129c3565b01358b5af16115d7612df3565b019091611e2c565b9382611e5273ffffffffffffffffffffffffffffffffffffffff93611f04936129c3565b3516604051907f70a08231000000000000000000000000000000000000000000000000000000008252866004830152602082602481845afa918215610e0a578984915f9461208f575b5091611f706020611f668194611e52602498978d6129c3565b01358a3384613306565b604051938480927f70a082310000000000000000000000000000000000000000000000000000000082528b60048301525afa8015610e0a575f9061205c575b611fb99250612d44565b6020611fc983611e528b896129c3565b013503611fd857600190611ed8565b60846040517f08c379a000000000000000000000000000000000000000000000000000000000815260206004820152603060248201527f5661756c743a206661696c656420746f207472616e736665722074686520646560448201527f7374696e6174696f6e20616d6f756e74000000000000000000000000000000006064820152fd5b506020823d8211612087575b8161207560209383612912565b81010312610e1557611fb99151611faf565b3d9150612068565b935050506020823d82116120c0575b816120ab60209383612912565b81010312610e15579051908289611f70611f4d565b3d915061209e565b7f8269c55f67f0f5ae1a8141ef17cf9954557129a8c36c214a1afa8a5da9d76e3c60408785938061213c575b5073ffffffffffffffffffffffffffffffffffffffff825191168152336020820152a25f7f9b779b17422d0df92223018b32b4d1fa46e071723d6817e2486d003becc55f005d005b5f80808061214f94335af16115d7612df3565b846120f4565b34610e155760407ffffffffffffffffffffffffffffffffffffffffffffffffffffffffffffffffc360112610e155761218c61283b565b3373ffffffffffffffffffffffffffffffffffffffff8216036121b557611b859060043561375f565b7f6697b232000000000000000000000000000000000000000000000000000000005f5260045ffd5b34610e155760407ffffffffffffffffffffffffffffffffffffffffffffffffffffffffffffffffc360112610e1557611b8560043561221a61283b565b9061225361022d825f527f02dd7bc7dec4dceedda775e58dd541e08a116c6c53815c0bd028192f7b626800602052600160405f20015490565b61364d565b34610e155760207ffffffffffffffffffffffffffffffffffffffffffffffffffffffffffffffffc360112610e15576004355f526003602052602060ff60405f2054166040519015158152f35b60607ffffffffffffffffffffffffffffffffffffffffffffffffffffffffffffffffc360112610e155760043567ffffffffffffffff8111610e1557806004016101007ffffffffffffffffffffffffffffffffffffffffffffffffffffffffffffffffc8336030112610e15576024359167ffffffffffffffff8311610e155761233661236b93369060040161280d565b9290916123648260443594612349612fbd565b61235c61019d61019660e48701856129c3565b968791613101565b9590612ab0565b612387602061237e85610b868680612b15565b01354614612ba6565b61239583610b868480612b15565b356004811015610e15576123ac90610aad81612c0b565b6123da60a482013591825f5260026020526123ce60ff60405f20541615612c7a565b60c44291013511612cdf565b5f52600260205260405f2060017fffffffffffffffffffffffffffffffffffffffffffffffffffffffffffffff00825416179055835f525f60205260405f2060017fffffffffffffffffffffffffffffffffffffffffffffffffffffffffffffff00825416179055604061245283610b868480612b15565b01356124da5791612498606061248f602094610b86877f486242080fa32fab3d0c1b35cf4b72db37f659787c4ee1a3cebcea1f7274c84398612b15565b01353414612d7e565b73ffffffffffffffffffffffffffffffffffffffff60405191168152a25f7f9b779b17422d0df92223018b32b4d1fa46e071723d6817e2486d003becc55f005d005b9073ffffffffffffffffffffffffffffffffffffffff604061250083610b868680612b15565b01351690604051917f70a08231000000000000000000000000000000000000000000000000000000008352306004840152602083602481845afa928315610e0a575f9361262c575b50602060249161256b606061256186610b868a80612b15565b0135308984613306565b604051928380927f70a082310000000000000000000000000000000000000000000000000000000082523060048301525afa908115610e0a575f916125f6575b5090610b866125bf6060946125c694612d44565b9480612b15565b013503610f8e5760207f486242080fa32fab3d0c1b35cf4b72db37f659787c4ee1a3cebcea1f7274c84391612498565b9190506020823d602011612624575b8161261260209383612912565b81010312610e15579051610b866125ab565b3d9150612605565b9092506020813d602011612659575b8161264860209383612912565b81010312610e155751916020612548565b3d915061263b565b34610e155760207ffffffffffffffffffffffffffffffffffffffffffffffffffffffffffffffffc360112610e155760206126c96004355f527f02dd7bc7dec4dceedda775e58dd541e08a116c6c53815c0bd028192f7b626800602052600160405f20015490565b604051908152f35b34610e155760207ffffffffffffffffffffffffffffffffffffffffffffffffffffffffffffffffc360112610e15576004355f525f60205260ff60405f2054166040516003821015612724576020918152f35b7f4e487b71000000000000000000000000000000000000000000000000000000005f52602160045260245ffd5b34610e155760207ffffffffffffffffffffffffffffffffffffffffffffffffffffffffffffffffc360112610e1557600435907fffffffff000000000000000000000000000000000000000000000000000000008216809203610e1557817f7965db0b00000000000000000000000000000000000000000000000000000000602093149081156127e3575b5015158152f35b7f01ffc9a700000000000000000000000000000000000000000000000000000000915014836127dc565b9181601f84011215610e155782359167ffffffffffffffff8311610e155760208381860195010111610e1557565b6024359073ffffffffffffffffffffffffffffffffffffffff82168203610e1557565b6004359073ffffffffffffffffffffffffffffffffffffffff82168203610e1557565b9060407ffffffffffffffffffffffffffffffffffffffffffffffffffffffffffffffffc830112610e155760043567ffffffffffffffff8111610e15576101007ffffffffffffffffffffffffffffffffffffffffffffffffffffffffffffffffc8285030112610e1557600401916024359067ffffffffffffffff8211610e155761290e9160040161280d565b9091565b90601f7fffffffffffffffffffffffffffffffffffffffffffffffffffffffffffffffe0910116810190811067ffffffffffffffff821117610e1957604052565b67ffffffffffffffff8111610e1957601f017fffffffffffffffffffffffffffffffffffffffffffffffffffffffffffffffe01660200190565b92919261299982612953565b916129a76040519384612912565b829481845281830111610e15578281602093845f960137010152565b9035907fffffffffffffffffffffffffffffffffffffffffffffffffffffffffffffffe181360301821215610e15570180359067ffffffffffffffff8211610e1557602001918160061b36038313610e1557565b92919267ffffffffffffffff8211610e195760405193612a3d60208460051b0186612912565b602085848152019260061b820191818311610e1557925b828410612a615750505050565b604084830312610e1557604051906040820182811067ffffffffffffffff821117610e19576040528435906004821015610e155782602092604094528287013583820152815201930192612a54565b15612ab757565b60646040517f08c379a000000000000000000000000000000000000000000000000000000000815260206004820152602060248201527f5661756c743a20496e76616c6964207369676e6174757265206f722066726f6d6044820152fd5b9035907fffffffffffffffffffffffffffffffffffffffffffffffffffffffffffffffe181360301821215610e15570180359067ffffffffffffffff8211610e1557602001918160071b36038313610e1557565b9190811015612b795760071b0190565b7f4e487b71000000000000000000000000000000000000000000000000000000005f52603260045260245ffd5b15612bad57565b60646040517f08c379a000000000000000000000000000000000000000000000000000000000815260206004820152601860248201527f5661756c743a20436861696e204944206d69736d6174636800000000000000006044820152fd5b6004111561272457565b15612c1c57565b60646040517f08c379a000000000000000000000000000000000000000000000000000000000815260206004820152601860248201527f5661756c743a20556e697665727365206d69736d6174636800000000000000006044820152fd5b15612c8157565b60646040517f08c379a000000000000000000000000000000000000000000000000000000000815260206004820152601960248201527f5661756c743a204e6f6e636520616c72656164792075736564000000000000006044820152fd5b15612ce657565b60646040517f08c379a000000000000000000000000000000000000000000000000000000000815260206004820152601660248201527f5661756c743a20526571756573742065787069726564000000000000000000006044820152fd5b91908203918211612d5157565b7f4e487b71000000000000000000000000000000000000000000000000000000005f52601160045260245ffd5b15612d8557565b60646040517f08c379a000000000000000000000000000000000000000000000000000000000815260206004820152601560248201527f5661756c743a2056616c7565206d69736d6174636800000000000000000000006044820152fd5b9190811015612b795760061b0190565b3d15612e1d573d90612e0482612953565b91612e126040519384612912565b82523d5f602084013e565b606090565b15612e2957565b60646040517f08c379a000000000000000000000000000000000000000000000000000000000815260206004820152601660248201527f5661756c743a205472616e73666572206661696c6564000000000000000000006044820152fd5b9035907fffffffffffffffffffffffffffffffffffffffffffffffffffffffffffffffe181360301821215610e15570180359067ffffffffffffffff8211610e1557602001918160051b36038313610e1557565b916020908281520191905f905b808210612ef55750505090565b90919283359073ffffffffffffffffffffffffffffffffffffffff8216809203610e1557602081600193829352019401920190612ee8565b90918281527f07ffffffffffffffffffffffffffffffffffffffffffffffffffffffffffffff8311610e155760209260051b809284830137010190565b9190811015612b795760051b0190565b3573ffffffffffffffffffffffffffffffffffffffff81168103610e155790565b3567ffffffffffffffff81168103610e155790565b9060028210156127245752565b7f9b779b17422d0df92223018b32b4d1fa46e071723d6817e2486d003becc55f005c6130095760017f9b779b17422d0df92223018b32b4d1fa46e071723d6817e2486d003becc55f005d565b7f3ee5aeb5000000000000000000000000000000000000000000000000000000005f5260045ffd5b8051821015612b795760209160051b010190565b5f5b81518110156130a35761305a8183613031565b515161306581612c0b565b61306e81612c0b565b1561307b57600101613047565b61309c60209173ffffffffffffffffffffffffffffffffffffffff93613031565b5101511690565b60646040517f08c379a000000000000000000000000000000000000000000000000000000000815260206004820152601660248201527f5661756c743a205061727479206e6f7420666f756e64000000000000000000006044820152fd5b90939261310e8180612b15565b916020810135916004831015610e1557919261312d60808301836129c3565b91909261313d60e08201826129c3565b939092604051966020880198826101208a016101008c5252610140890191925f5b8181106132e95750506020925061317481612c0b565b604089015260408401356060890152606084013560808901527fffffffffffffffffffffffffffffffffffffffffffffffffffffffffffffffe08882030160a08901528281520194905f5b8181106132c95750505094846132656132c199966132396132b8976132b29773ffffffffffffffffffffffffffffffffffffffff9c9760c08d8f9e60a0013582880152013560e08601527fffffffffffffffffffffffffffffffffffffffffffffffffffffffffffffffe085840301610100860152613922565b037fffffffffffffffffffffffffffffffffffffffffffffffffffffffffffffffe08101835282612912565b51902060405160208101917f19457468657265756d205369676e6564204d6573736167653a0a3332000000008352603c820152603c81526132a7605c82612912565b51902098369161298d565b87613972565b909591956139ac565b169116149190565b8235875260208084013590880152604096870196909201916001016131bf565b90919260806132fa600192876138e6565b9501949392910161315e565b92909173ffffffffffffffffffffffffffffffffffffffff9081604051947f23b872dd000000000000000000000000000000000000000000000000000000005f52166004521660245260445260205f60648180865af19060015f51148216156133bb575b6040525f606052156133795750565b73ffffffffffffffffffffffffffffffffffffffff907f5274afe7000000000000000000000000000000000000000000000000000000005f521660045260245ffd5b9060018115166133d357823b15153d1516169061336a565b503d5f823e3d90fd5b805f527f02dd7bc7dec4dceedda775e58dd541e08a116c6c53815c0bd028192f7b62680060205260405f2073ffffffffffffffffffffffffffffffffffffffff33165f5260205260ff60405f205416156134335750565b7fe2517d3f000000000000000000000000000000000000000000000000000000005f523360045260245260445ffd5b73ffffffffffffffffffffffffffffffffffffffff81165f9081527fb7db2dd08fcb62d0c9e08c51941cae53c267786a0b75803fb7960902fc8ef97d602052604090205460ff166135445773ffffffffffffffffffffffffffffffffffffffff165f8181527fb7db2dd08fcb62d0c9e08c51941cae53c267786a0b75803fb7960902fc8ef97d6020526040812080547fffffffffffffffffffffffffffffffffffffffffffffffffffffffffffffff001660011790553391907f2f8788117e7eff1d82e926ec794901d17c78024a50270940304540a733656f0d8180a4600190565b505f90565b73ffffffffffffffffffffffffffffffffffffffff81165f9081527fab71e3f32666744d246edff3f96e4bdafee2e9867098cdd118a979a7464786a8602052604090205460ff166135445773ffffffffffffffffffffffffffffffffffffffff165f8181527fab71e3f32666744d246edff3f96e4bdafee2e9867098cdd118a979a7464786a86020526040812080547fffffffffffffffffffffffffffffffffffffffffffffffffffffffffffffff001660011790553391907f189ab7a9244df0848122154315af71fe140f3db0fe014031783b0946b8c9d2e3907f2f8788117e7eff1d82e926ec794901d17c78024a50270940304540a733656f0d9080a4600190565b805f527f02dd7bc7dec4dceedda775e58dd541e08a116c6c53815c0bd028192f7b62680060205260405f2073ffffffffffffffffffffffffffffffffffffffff83165f5260205260ff60405f205416155f1461375957805f527f02dd7bc7dec4dceedda775e58dd541e08a116c6c53815c0bd028192f7b62680060205260405f2073ffffffffffffffffffffffffffffffffffffffff83165f5260205260405f2060017fffffffffffffffffffffffffffffffffffffffffffffffffffffffffffffff0082541617905573ffffffffffffffffffffffffffffffffffffffff339216907f2f8788117e7eff1d82e926ec794901d17c78024a50270940304540a733656f0d5f80a4600190565b50505f90565b805f527f02dd7bc7dec4dceedda775e58dd541e08a116c6c53815c0bd028192f7b62680060205260405f2073ffffffffffffffffffffffffffffffffffffffff83165f5260205260ff60405f2054165f1461375957805f527f02dd7bc7dec4dceedda775e58dd541e08a116c6c53815c0bd028192f7b62680060205260405f2073ffffffffffffffffffffffffffffffffffffffff83165f5260205260405f207fffffffffffffffffffffffffffffffffffffffffffffffffffffffffffffff00815416905573ffffffffffffffffffffffffffffffffffffffff339216907ff6391f5c32d9c69d2a47ea670b442974b53935d1edc7fd64eb21e047a839171b5f80a4600190565b9173ffffffffffffffffffffffffffffffffffffffff604051927fa9059cbb000000000000000000000000000000000000000000000000000000005f521660045260245260205f60448180865af19060015f51148216156138ce575b604052156133795750565b9060018115166133d357823b15153d151616906138c3565b9081356004811015610e155760809281613901606093612c0b565b83526020810135602084015260408101356040840152013560608201520190565b916020908281520191905f905b80821061393c5750505090565b9091928335906004821015610e1557604080918361395b600195612c0b565b81526020870135602082015201940192019061392f565b81519190604183036139a25761399b9250602082015190606060408401519301515f1a90613b4f565b9192909190565b50505f9160029190565b6139b581612c0b565b806139be575050565b6139c781612c0b565b600181036139f7577ff645eedf000000000000000000000000000000000000000000000000000000005f5260045ffd5b613a0081612c0b565b60028103613a3457507ffce698f7000000000000000000000000000000000000000000000000000000005f5260045260245ffd5b600390613a4081612c0b565b14613a485750565b7fd78bce0c000000000000000000000000000000000000000000000000000000005f5260045260245ffd5b359067ffffffffffffffff82168203610e1557565b905f8091602081519101845af48080613b3c575b15613abc5750506040513d81523d5f602083013e60203d82010160405290565b15613b035773ffffffffffffffffffffffffffffffffffffffff907f9996b315000000000000000000000000000000000000000000000000000000005f521660045260245ffd5b3d15613b14576040513d5f823e3d90fd5b7fd6bda275000000000000000000000000000000000000000000000000000000005f5260045ffd5b503d151580613a9c5750813b1515613a9c565b91907f7fffffffffffffffffffffffffffffff5d576e7357a4501ddfe92f46681b20a08411613bd3579160209360809260ff5f9560405194855216868401526040830152606082015282805260015afa15610e0a575f5173ffffffffffffffffffffffffffffffffffffffff811615613bc957905f905f90565b505f906001905f90565b5050505f916003919056fea26469706673582212206a89a90ee4f35a88b8dbc4040c2f925d56dab28a9caa55fac6ebae5f086a148364736f6c634300081e0033f0c57e16840df040f15088dc2f81fe391c3923bec73e23a9662efc9c229c6a00","linkReferences":{}},"methodIdentifiers":{"DEFAULT_ADMIN_ROLE()":"a217fddf","UPGRADE_INTERFACE_VERSION()":"ad3cb1cc","deposit(((uint8,uint256,bytes32,uint256)[],uint8,uint256,bytes32,(bytes32,uint256)[],uint256,uint256,(uint8,bytes32)[]),bytes,uint256)":"2b653696","depositNonce(uint256)":"85c0ac5b","depositRouter(((uint8,uint256,bytes32,uint256)[],(uint8,bytes32)[],bytes32,bytes32,bytes32,uint256,uint256,uint64,uint64),bytes,uint256,uint8,bytes)":"9d1f6adf","fillNonce(uint256)":"2ca166c4","fulfil(((uint8,uint256,bytes32,uint256)[],uint8,uint256,bytes32,(bytes32,uint256)[],uint256,uint256,(uint8,bytes32)[]),bytes)":"411e1fee","getRoleAdmin(bytes32)":"248a9ca3","grantRole(bytes32,address)":"2f2ff15d","hasRole(bytes32,address)":"91d14854","initialize(address)":"c4d66de8","proxiableUUID()":"52d1902d","renounceRole(bytes32,address)":"36568abe","requestState(bytes32)":"05b90773","revokeRole(bytes32,address)":"d547741f","router()":"f887ea40","setRouter(address)":"c0d78655","settle((uint8,uint256,address[],address[],uint256[],uint256),bytes)":"8bc3d290","settleNonce(uint256)":"87e2e3aa","supportsInterface(bytes4)":"01ffc9a7","upgradeToAndCall(address,bytes)":"4f1ef286","verifyRequestSignature(((uint8,uint256,bytes32,uint256)[],uint8,uint256,bytes32,(bytes32,uint256)[],uint256,uint256,(uint8,bytes32)[]),bytes)":"e3175f5d","winningSolver(bytes32)":"8d9b91a3"},"storageLayout":{"storage":[{"astId":52619,"contract":"src/Vault.sol:Vault","label":"requestState","offset":0,"slot":"0","type":"t_mapping(t_bytes32,t_enum(RFFState)54443)"},{"astId":52623,"contract":"src/Vault.sol:Vault","label":"winningSolver","offset":0,"slot":"1","type":"t_mapping(t_bytes32,t_address)"},{"astId":52627,"contract":"src/Vault.sol:Vault","label":"depositNonce","offset":0,"slot":"2","type":"t_mapping(t_uint256,t_bool)"},{"astId":52631,"contract":"src/Vault.sol:Vault","label":"fillNonce","offset":0,"slot":"3","type":"t_mapping(t_uint256,t_bool)"},{"astId":52635,"contract":"src/Vault.sol:Vault","label":"settleNonce","offset":0,"slot":"4","type":"t_mapping(t_uint256,t_bool)"},{"astId":52639,"contract":"src/Vault.sol:Vault","label":"router","offset":0,"slot":"5","type":"t_contract(IRouter)53934"},{"astId":52653,"contract":"src/Vault.sol:Vault","label":"__gap","offset":0,"slot":"6","type":"t_array(t_uint256)50_storage"}],"types":{"t_address":{"encoding":"inplace","label":"address","numberOfBytes":"20"},"t_array(t_uint256)50_storage":{"encoding":"inplace","label":"uint256[50]","numberOfBytes":"1600","base":"t_uint256"},"t_bool":{"encoding":"inplace","label":"bool","numberOfBytes":"1"},"t_bytes32":{"encoding":"inplace","label":"bytes32","numberOfBytes":"32"},"t_contract(IRouter)53934":{"encoding":"inplace","label":"contract IRouter","numberOfBytes":"20"},"t_enum(RFFState)54443":{"encoding":"inplace","label":"enum RFFState","numberOfBytes":"1"},"t_mapping(t_bytes32,t_address)":{"encoding":"mapping","key":"t_bytes32","label":"mapping(bytes32 => address)","numberOfBytes":"32","value":"t_address"},"t_mapping(t_bytes32,t_enum(RFFState)54443)":{"encoding":"mapping","key":"t_bytes32","label":"mapping(bytes32 => enum RFFState)","numberOfBytes":"32","value":"t_enum(RFFState)54443"},"t_mapping(t_uint256,t_bool)":{"encoding":"mapping","key":"t_uint256","label":"mapping(uint256 => bool)","numberOfBytes":"32","value":"t_bool"},"t_uint256":{"encoding":"inplace","label":"uint256","numberOfBytes":"32"}}},"id":80}