{"abi":[{"type":"constructor","inputs":[],"stateMutability":"nonpayable"},{"type":"function","name":"MAYAN_FORWARDER","inputs":[],"outputs":[{"name":"","type":"address","internalType":"address"}],"stateMutability":"view"},{"type":"function","name":"SWIFT_V2_PROTOCOL","inputs":[],"outputs":[{"name":"","type":"address","internalType":"address"}],"stateMutability":"view"},{"type":"function","name":"caip2ToWormholeChainId","inputs":[{"name":"","type":"bytes32","internalType":"bytes32"},{"name":"","type":"uint256","internalType":"uint256"}],"outputs":[{"name":"","type":"uint16","internalType":"uint16"}],"stateMutability":"view"},{"type":"function","name":"owner","inputs":[],"outputs":[{"name":"","type":"address","internalType":"address"}],"stateMutability":"view"},{"type":"function","name":"processTransfer","inputs":[{"name":"request","type":"tuple","internalType":"struct RouterAction","components":[{"name":"tokenAddress","type":"bytes32","internalType":"bytes32"},{"name":"recipientAddress","type":"bytes32","internalType":"bytes32"},{"name":"destinationCaip2namespace","type":"bytes32","internalType":"bytes32"},{"name":"destinationContractAddress","type":"bytes32","internalType":"bytes32"},{"name":"destinationMinTokenAmount","type":"uint256","internalType":"uint256"},{"name":"amountIn","type":"uint256","internalType":"uint256"},{"name":"destinationCaip2chainId","type":"uint256","internalType":"uint256"},{"name":"nonce","type":"uint64","internalType":"uint64"},{"name":"deadline","type":"uint64","internalType":"uint64"}]},{"name":"data","type":"bytes","internalType":"bytes"}],"outputs":[],"stateMutability":"payable"},{"type":"function","name":"renounceOwnership","inputs":[],"outputs":[],"stateMutability":"nonpayable"},{"type":"function","name":"setWormholeChainMapping","inputs":[{"name":"namespaceHash","type":"bytes32","internalType":"bytes32"},{"name":"chainId","type":"uint256","internalType":"uint256"},{"name":"wormholeChainId","type":"uint16","internalType":"uint16"}],"outputs":[],"stateMutability":"nonpayable"},{"type":"function","name":"transferOwnership","inputs":[{"name":"newOwner","type":"address","internalType":"address"}],"outputs":[],"stateMutability":"nonpayable"},{"type":"event","name":"OwnershipTransferred","inputs":[{"name":"previousOwner","type":"address","indexed":true,"internalType":"address"},{"name":"newOwner","type":"address","indexed":true,"internalType":"address"}],"anonymous":false},{"type":"event","name":"WormholeChainMappingSet","inputs":[{"name":"namespaceHash","type":"bytes32","indexed":true,"internalType":"bytes32"},{"name":"chainId","type":"uint256","indexed":true,"internalType":"uint256"},{"name":"wormholeChainId","type":"uint16","indexed":false,"internalType":"uint16"}],"anonymous":false},{"type":"error","name":"OwnableInvalidOwner","inputs":[{"name":"owner","type":"address","internalType":"address"}]},{"type":"error","name":"OwnableUnauthorizedAccount","inputs":[{"name":"account","type":"address","internalType":"address"}]}],"bytecode":{"object":"0x608080604052346101c85733156101b5575f8054336001600160a01b0319821681178355916001600160a01b03909116907f8be0079c531659141344cd1fd0a4f28419497f9722a3daafe3b4186f6b6457e09080a37f46803496bea6166a3a0a7d239a1b40203f07c4c9ec82467c3a9d9b47cb05b22c805461ffff199081166002179091557f523fd6e95ba36c3844ca9f673420869111215c86b55bce5d89072ecf143135cf80548216601e1790557fdcd7b57f1e59cd74769c6e36163d1535700c1fb6b5a0bd756ef3be3d0bd4e7948054821660171790557f0d698d483152db1b35f63b1eea33453297ae4005c67d1cefed5c07126b6c4cc98054821660181790557f83aaaa6d93a7291a22130081e7244b581233acb3040747fb77c17949da3a050e8054821660061790557f2f58146f5253f437c27a58a8f42f66e2fae9badfca60eb20ca9d919efe069c5980548216600517905560385f527f384e13359d2c02bc764492f3666eadf2a72d9597ae3617c5b91f2fb63d3234bc6020527f42b8d66a4f2d93080324375372bb20c01e6a0ffc0ddec22b85ee95f36cfde4d380549091166004179055610d1190816101cd8239f35b631e4fbdf760e01b5f525f60045260245ffd5b5f80fdfe60806040526004361015610011575f80fd5b5f5f3560e01c80630122bde614610b1a57806340109e8114610ac2578063715018a614610a285780637cf9522b146109dc5780638da5cb5b1461098c5780639933ac51146101b45780639d9f2c70146101675763f2fde38b14610072575f80fd5b346101645760207ffffffffffffffffffffffffffffffffffffffffffffffffffffffffffffffffc3601126101645760043573ffffffffffffffffffffffffffffffffffffffff8116809103610162576100ca610c8f565b80156101365773ffffffffffffffffffffffffffffffffffffffff8254827fffffffffffffffffffffffff00000000000000000000000000000000000000008216178455167f8be0079c531659141344cd1fd0a4f28419497f9722a3daafe3b4186f6b6457e08380a380f35b6024827f1e4fbdf700000000000000000000000000000000000000000000000000000000815280600452fd5b505b80fd5b503461016457807ffffffffffffffffffffffffffffffffffffffffffffffffffffffffffffffffc36011261016457602060405173c05fb021704d4709c8c058da691fdf40705746858152f35b507ffffffffffffffffffffffffffffffffffffffffffffffffffffffffffffffffc360161014081126108b357610120136108b3576101243567ffffffffffffffff81116108b357366023820112156108b357806004013567ffffffffffffffff81116108b35781013660248201116108b35760043573ffffffffffffffffffffffffffffffffffffffff169160a4359161012090829003126108b35761025d60248201610bd0565b9261026a60848301610bd0565b61027660a48401610bd0565b9261028360c48201610be5565b9361029060e48301610be5565b61029d6101248401610be5565b916044355f52600160205260405f2060c4355f5260205261ffff60405f20541696871561092e576101043567ffffffffffffffff81168091036108b357604051986101c08a01938a851067ffffffffffffffff8611176108b75767ffffffffffffffff610104998f9e60e0838f9260648e839960ff9f60ff9e908f9160405216875260243560208801526044820135604088015260608701520135608085015260643560a0850152816084351660c085015216910152166101008c0152166101208a0152610140890152166101608701521661018085015201356101a083015280155f146105a35750906104e46104a4926104b860405161039f602082610bf3565b5f81526040519586937fca5662b000000000000000000000000000000000000000000000000000000000602086015260248501906101a0809160ff8151168452602081015160208501526040810151604085015261ffff60608201511660608501526080810151608085015260a081015160a085015267ffffffffffffffff60c08201511660c085015267ffffffffffffffff60e08201511660e085015267ffffffffffffffff6101008201511661010085015267ffffffffffffffff6101208201511661012085015267ffffffffffffffff6101408201511661014085015260ff6101608201511661016085015260ff610180820151166101808501520151910152565b6101e06101e4840152610204830190610c34565b037fffffffffffffffffffffffffffffffffffffffffffffffffffffffffffffffe08101845283610bf3565b73337685fdab40d39bd02028545a4ffa7d287cc3e23b1561059f5761055b91839160405180809581947fb0f584ff00000000000000000000000000000000000000000000000000000000835273c05fb021704d4709c8c058da691fdf40705746856004840152604060248401526044830190610c34565b039173337685fdab40d39bd02028545a4ffa7d287cc3e25af180156105945761058357505080f35b8161058d91610bf3565b6101645780f35b6040513d84823e3d90fd5b5050fd5b9250906106e36106cf926104b86040516105be602082610bf3565b5f81526040519586937fa3a3083400000000000000000000000000000000000000000000000000000000602086015288602486015286604486015260648501906101a0809160ff8151168452602081015160208501526040810151604085015261ffff60608201511660608501526080810151608085015260a081015160a085015267ffffffffffffffff60c08201511660c085015267ffffffffffffffff60e08201511660e085015267ffffffffffffffff6101008201511661010085015267ffffffffffffffff6101208201511661012085015267ffffffffffffffff6101408201511661014085015260ff6101608201511661016085015260ff610180820151166101808501520151910152565b610220610224840152610244830190610c34565b6040517f23b872dd0000000000000000000000000000000000000000000000000000000081523360048201523060248201528160448201526020816064815f885af180156108a857610911575b506040517f095ea7b300000000000000000000000000000000000000000000000000000000815273337685fdab40d39bd02028545a4ffa7d287cc3e260048201528160248201526020816044815f885af180156108a8576108e4575b506040519260a0840184811067ffffffffffffffff8211176108b7576040525f845260208401925f845260408501905f8252606086015f815260808701905f825273337685fdab40d39bd02028545a4ffa7d287cc3e23b156108b35760ff610872945f986040519a8b998a997fe4269fc4000000000000000000000000000000000000000000000000000000008b5260048b015260248a0152516044890152516064880152511660848601525160a48501525160c484015273c05fb021704d4709c8c058da691fdf407057468560e4840152610120610104840152610124830190610c34565b03818373337685fdab40d39bd02028545a4ffa7d287cc3e25af180156108a85761089a575080f35b6108a691505f90610bf3565b005b6040513d5f823e3d90fd5b5f80fd5b7f4e487b71000000000000000000000000000000000000000000000000000000005f52604160045260245ffd5b6109059060203d60201161090a575b6108fd8183610bf3565b810190610c77565b61078c565b503d6108f3565b6109299060203d60201161090a576108fd8183610bf3565b610730565b60646040517f08c379a000000000000000000000000000000000000000000000000000000000815260206004820152601d60248201527f556e737570706f727465642064657374696e6174696f6e20636861696e0000006044820152fd5b346108b3575f7ffffffffffffffffffffffffffffffffffffffffffffffffffffffffffffffffc3601126108b357602073ffffffffffffffffffffffffffffffffffffffff5f5416604051908152f35b346108b3575f7ffffffffffffffffffffffffffffffffffffffffffffffffffffffffffffffffc3601126108b357602060405173337685fdab40d39bd02028545a4ffa7d287cc3e28152f35b346108b3575f7ffffffffffffffffffffffffffffffffffffffffffffffffffffffffffffffffc3601126108b357610a5e610c8f565b5f73ffffffffffffffffffffffffffffffffffffffff81547fffffffffffffffffffffffff000000000000000000000000000000000000000081168355167f8be0079c531659141344cd1fd0a4f28419497f9722a3daafe3b4186f6b6457e08280a3005b346108b35760407ffffffffffffffffffffffffffffffffffffffffffffffffffffffffffffffffc3601126108b3576004355f52600160205260405f206024355f52602052602061ffff60405f205416604051908152f35b346108b35760607ffffffffffffffffffffffffffffffffffffffffffffffffffffffffffffffffc3601126108b3576004356024359060443561ffff81168091036108b35760207fa33497d8a20955d449d3bbc0f8046aae1fd3b8d98a0a3adc1de81b22bea9d44e91610b8b610c8f565b835f526001825260405f20855f52825260405f20817fffffffffffffffffffffffffffffffffffffffffffffffffffffffffffff0000825416179055604051908152a3005b359067ffffffffffffffff821682036108b357565b359060ff821682036108b357565b90601f7fffffffffffffffffffffffffffffffffffffffffffffffffffffffffffffffe0910116810190811067ffffffffffffffff8211176108b757604052565b907fffffffffffffffffffffffffffffffffffffffffffffffffffffffffffffffe0601f602080948051918291828752018686015e5f8582860101520116010190565b908160209103126108b3575180151581036108b35790565b73ffffffffffffffffffffffffffffffffffffffff5f54163303610caf57565b7f118cdaa7000000000000000000000000000000000000000000000000000000005f523360045260245ffdfea26469706673582212201d77d59bd0cc727ef7b37e0e4e6bb55fd69197fc6217917c090dc70b0f1d0f6064736f6c634300081e0033","linkReferences":{}},"methodIdentifiers":{"MAYAN_FORWARDER()":"7cf9522b","SWIFT_V2_PROTOCOL()":"9d9f2c70","caip2ToWormholeChainId(bytes32,uint256)":"40109e81","owner()":"8da5cb5b","processTransfer((bytes32,bytes32,bytes32,bytes32,uint256,uint256,uint256,uint64,uint64),bytes)":"9933ac51","renounceOwnership()":"715018a6","setWormholeChainMapping(bytes32,uint256,uint16)":"0122bde6","transferOwnership(address)":"f2fde38b"},"storageLayout":{"storage":[{"astId":36488,"contract":"src/routes/mayan.sol:MayanRouter","label":"_owner","offset":0,"slot":"0","type":"t_address"},{"astId":54118,"contract":"src/routes/mayan.sol:MayanRouter","label":"caip2ToWormholeChainId","offset":0,"slot":"1","type":"t_mapping(t_bytes32,t_mapping(t_uint256,t_uint16))"}],"types":{"t_address":{"encoding":"inplace","label":"address","numberOfBytes":"20"},"t_bytes32":{"encoding":"inplace","label":"bytes32","numberOfBytes":"32"},"t_mapping(t_bytes32,t_mapping(t_uint256,t_uint16))":{"encoding":"mapping","key":"t_bytes32","label":"mapping(bytes32 => mapping(uint256 => uint16))","numberOfBytes":"32","value":"t_mapping(t_uint256,t_uint16)"},"t_mapping(t_uint256,t_uint16)":{"encoding":"mapping","key":"t_uint256","label":"mapping(uint256 => uint16)","numberOfBytes":"32","value":"t_uint16"},"t_uint16":{"encoding":"inplace","label":"uint16","numberOfBytes":"2"},"t_uint256":{"encoding":"inplace","label":"uint256","numberOfBytes":"32"}}},"id":84}