{"abi":[{"type":"constructor","inputs":[{"name":"admin","type":"address","internalType":"address"}],"stateMutability":"nonpayable"},{"type":"function","name":"DEFAULT_ADMIN_ROLE","inputs":[],"outputs":[{"name":"","type":"bytes32","internalType":"bytes32"}],"stateMutability":"view"},{"type":"function","name":"getRoleAdmin","inputs":[{"name":"role","type":"bytes32","internalType":"bytes32"}],"outputs":[{"name":"","type":"bytes32","internalType":"bytes32"}],"stateMutability":"view"},{"type":"function","name":"grantRole","inputs":[{"name":"role","type":"bytes32","internalType":"bytes32"},{"name":"account","type":"address","internalType":"address"}],"outputs":[],"stateMutability":"nonpayable"},{"type":"function","name":"hasRole","inputs":[{"name":"role","type":"bytes32","internalType":"bytes32"},{"name":"account","type":"address","internalType":"address"}],"outputs":[{"name":"","type":"bool","internalType":"bool"}],"stateMutability":"view"},{"type":"function","name":"processTransfer","inputs":[{"name":"request","type":"tuple","internalType":"struct RouterAction","components":[{"name":"tokenAddress","type":"bytes32","internalType":"bytes32"},{"name":"recipientAddress","type":"bytes32","internalType":"bytes32"},{"name":"destinationCaip2namespace","type":"bytes32","internalType":"bytes32"},{"name":"destinationContractAddress","type":"bytes32","internalType":"bytes32"},{"name":"destinationMinTokenAmount","type":"uint256","internalType":"uint256"},{"name":"amountIn","type":"uint256","internalType":"uint256"},{"name":"destinationCaip2chainId","type":"uint256","internalType":"uint256"},{"name":"nonce","type":"uint64","internalType":"uint64"},{"name":"deadline","type":"uint64","internalType":"uint64"}]},{"name":"route","type":"uint8","internalType":"enum Route"},{"name":"data","type":"bytes","internalType":"bytes"}],"outputs":[],"stateMutability":"payable"},{"type":"function","name":"renounceRole","inputs":[{"name":"role","type":"bytes32","internalType":"bytes32"},{"name":"callerConfirmation","type":"address","internalType":"address"}],"outputs":[],"stateMutability":"nonpayable"},{"type":"function","name":"revokeRole","inputs":[{"name":"role","type":"bytes32","internalType":"bytes32"},{"name":"account","type":"address","internalType":"address"}],"outputs":[],"stateMutability":"nonpayable"},{"type":"function","name":"routers","inputs":[{"name":"","type":"uint8","internalType":"enum Route"}],"outputs":[{"name":"","type":"address","internalType":"address"}],"stateMutability":"view"},{"type":"function","name":"setRouter","inputs":[{"name":"route","type":"uint8","internalType":"enum Route"},{"name":"routerAddress","type":"address","internalType":"address"}],"outputs":[],"stateMutability":"nonpayable"},{"type":"function","name":"supportsInterface","inputs":[{"name":"interfaceId","type":"bytes4","internalType":"bytes4"}],"outputs":[{"name":"","type":"bool","internalType":"bool"}],"stateMutability":"view"},{"type":"event","name":"MayanRoute","inputs":[{"name":"requestHash","type":"bytes32","indexed":true,"internalType":"bytes32"}],"anonymous":false},{"type":"event","name":"NativeRoute","inputs":[{"name":"requestHash","type":"bytes32","indexed":true,"internalType":"bytes32"}],"anonymous":false},{"type":"event","name":"RoleAdminChanged","inputs":[{"name":"role","type":"bytes32","indexed":true,"internalType":"bytes32"},{"name":"previousAdminRole","type":"bytes32","indexed":true,"internalType":"bytes32"},{"name":"newAdminRole","type":"bytes32","indexed":true,"internalType":"bytes32"}],"anonymous":false},{"type":"event","name":"RoleGranted","inputs":[{"name":"role","type":"bytes32","indexed":true,"internalType":"bytes32"},{"name":"account","type":"address","indexed":true,"internalType":"address"},{"name":"sender","type":"address","indexed":true,"internalType":"address"}],"anonymous":false},{"type":"event","name":"RoleRevoked","inputs":[{"name":"role","type":"bytes32","indexed":true,"internalType":"bytes32"},{"name":"account","type":"address","indexed":true,"internalType":"address"},{"name":"sender","type":"address","indexed":true,"internalType":"address"}],"anonymous":false},{"type":"event","name":"RouterSet","inputs":[{"name":"route","type":"uint8","indexed":true,"internalType":"enum Route"},{"name":"routerAddress","type":"address","indexed":true,"internalType":"address"}],"anonymous":false},{"type":"error","name":"AccessControlBadConfirmation","inputs":[]},{"type":"error","name":"AccessControlUnauthorizedAccount","inputs":[{"name":"account","type":"address","internalType":"address"},{"name":"neededRole","type":"bytes32","internalType":"bytes32"}]},{"type":"error","name":"InvalidRoute","inputs":[]},{"type":"error","name":"ZeroAddress","inputs":[]}],"bytecode":{"object":"0x60803461006857601f610c6338819003918201601f19168301916001600160401b0383118484101761006c5780849260209460405283398101031261006857516001600160a01b03811681036100685761005890610080565b50604051610b39908161010a8239f35b5f80fd5b634e487b7160e01b5f52604160045260245ffd5b6001600160a01b0381165f9081525f516020610c435f395f51905f52602052604090205460ff16610104576001600160a01b03165f8181525f516020610c435f395f51905f5260205260408120805460ff191660011790553391907f2f8788117e7eff1d82e926ec794901d17c78024a50270940304540a733656f0d8180a4600190565b505f9056fe6080806040526004361015610012575f80fd5b5f905f3560e01c90816301ffc9a71461070557508063248a9ca3146106b55780632f2ff15d1461065a57806336568abe146105d25780637ac15ec51461035057806391d14854146102db578063a217fddf146102a1578063bd9c7f511461023a578063d547741f146101d55763e4b58cdc1461008c575f80fd5b346101d25760407ffffffffffffffffffffffffffffffffffffffffffffffffffffffffffffffffc3601126101d25760043560028110156101d0576100cf6107c1565b828052826020526040832073ffffffffffffffffffffffffffffffffffffffff33165f5260205260ff60405f205416156101a05773ffffffffffffffffffffffffffffffffffffffff1690811561017857610129816107e4565b827fffffffffffffffffffffffff00000000000000000000000000000000000000008254161790557f98f3d3eeaab188819267066656ec6da51529903e6a9c0563cd9b9a2909c075fb8380a380f35b6004837fd92e233d000000000000000000000000000000000000000000000000000000008152fd5b6044837fe2517d3f0000000000000000000000000000000000000000000000000000000081523360045280602452fd5b505b80fd5b50346101d25760407ffffffffffffffffffffffffffffffffffffffffffffffffffffffffffffffffc3601126101d2576102366004356102136107c1565b9061023161022c825f525f602052600160405f20015490565b610903565b610a3b565b5080f35b50346101d25760207ffffffffffffffffffffffffffffffffffffffffffffffffffffffffffffffffc3601126101d2576004359060028210156101d257602073ffffffffffffffffffffffffffffffffffffffff610297846107e4565b5416604051908152f35b50346101d257807ffffffffffffffffffffffffffffffffffffffffffffffffffffffffffffffffc3601126101d257602090604051908152f35b50346101d25760407ffffffffffffffffffffffffffffffffffffffffffffffffffffffffffffffffc3601126101d25773ffffffffffffffffffffffffffffffffffffffff604061032a6107c1565b926004358152806020522091165f52602052602060ff60405f2054166040519015158152f35b507ffffffffffffffffffffffffffffffffffffffffffffffffffffffffffffffffc3601610160811261052357610120136105235761012435600281101561052357610144359067ffffffffffffffff821161052357366023830112156105235781600401359167ffffffffffffffff83116105235736602484830101116105235773ffffffffffffffffffffffffffffffffffffffff6103f0836107e4565b54169182156105275773ffffffffffffffffffffffffffffffffffffffff600435168061054f575b5060010361052757604051602081019061043182610896565b610120815261044261014082610828565b5190207f861b7e5934820cd74f4245d936687b94e982c2fb38fafa2b70f128b16b5fdc3b5f80a2813b15610523575f91602461016485937fffffffffffffffffffffffffffffffffffffffffffffffffffffffffffffffe0601f604051988997889687957f9933ac510000000000000000000000000000000000000000000000000000000087526104d560048801610896565b610140610124880152826101448801520186860137888582860101520116810103019134905af180156105185761050a575080f35b61051691505f90610828565b005b6040513d5f823e3d90fd5b5f80fd5b7f84e505d2000000000000000000000000000000000000000000000000000000005f5260045ffd5b60205f916044604051809481937f095ea7b300000000000000000000000000000000000000000000000000000000835289600484015260a43560248401525af180156105185715610418576020813d6020116105ca575b816105b360209383610828565b81010312610523575180151503610523575f610418565b3d91506105a6565b346105235760407ffffffffffffffffffffffffffffffffffffffffffffffffffffffffffffffffc360112610523576106096107c1565b3373ffffffffffffffffffffffffffffffffffffffff8216036106325761051690600435610a3b565b7f6697b232000000000000000000000000000000000000000000000000000000005f5260045ffd5b346105235760407ffffffffffffffffffffffffffffffffffffffffffffffffffffffffffffffffc360112610523576105166004356106976107c1565b906106b061022c825f525f602052600160405f20015490565b610969565b346105235760207ffffffffffffffffffffffffffffffffffffffffffffffffffffffffffffffffc3601126105235760206106fd6004355f525f602052600160405f20015490565b604051908152f35b346105235760207ffffffffffffffffffffffffffffffffffffffffffffffffffffffffffffffffc36011261052357600435907fffffffff00000000000000000000000000000000000000000000000000000000821680920361052357817f7965db0b0000000000000000000000000000000000000000000000000000000060209314908115610797575b5015158152f35b7f01ffc9a70000000000000000000000000000000000000000000000000000000091501483610790565b6024359073ffffffffffffffffffffffffffffffffffffffff8216820361052357565b60028110156107fb575f52600160205260405f2090565b7f4e487b71000000000000000000000000000000000000000000000000000000005f52602160045260245ffd5b90601f7fffffffffffffffffffffffffffffffffffffffffffffffffffffffffffffffe0910116810190811067ffffffffffffffff82111761086957604052565b7f4e487b71000000000000000000000000000000000000000000000000000000005f52604160045260245ffd5b6004358152602435602082015260443560408201526064356060820152608435608082015260a43560a082015260c43560c082015260e43567ffffffffffffffff81168091036105235760e0820152610104359067ffffffffffffffff8216809203610523576101000152565b805f525f60205260405f2073ffffffffffffffffffffffffffffffffffffffff33165f5260205260ff60405f2054161561093a5750565b7fe2517d3f000000000000000000000000000000000000000000000000000000005f523360045260245260445ffd5b805f525f60205260405f2073ffffffffffffffffffffffffffffffffffffffff83165f5260205260ff60405f205416155f14610a3557805f525f60205260405f2073ffffffffffffffffffffffffffffffffffffffff83165f5260205260405f2060017fffffffffffffffffffffffffffffffffffffffffffffffffffffffffffffff0082541617905573ffffffffffffffffffffffffffffffffffffffff339216907f2f8788117e7eff1d82e926ec794901d17c78024a50270940304540a733656f0d5f80a4600190565b50505f90565b805f525f60205260405f2073ffffffffffffffffffffffffffffffffffffffff83165f5260205260ff60405f2054165f14610a3557805f525f60205260405f2073ffffffffffffffffffffffffffffffffffffffff83165f5260205260405f207fffffffffffffffffffffffffffffffffffffffffffffffffffffffffffffff00815416905573ffffffffffffffffffffffffffffffffffffffff339216907ff6391f5c32d9c69d2a47ea670b442974b53935d1edc7fd64eb21e047a839171b5f80a460019056fea2646970667358221220dad4b10cc95f0ebe660b35222716eb03e1b59bfa64cd43004ef4f74205a94f9264736f6c634300081e0033ad3228b676f7d3cd4284a5443f17f1962b36e491b30a40b2405849e597ba5fb5","linkReferences":{}},"methodIdentifiers":{"DEFAULT_ADMIN_ROLE()":"a217fddf","getRoleAdmin(bytes32)":"248a9ca3","grantRole(bytes32,address)":"2f2ff15d","hasRole(bytes32,address)":"91d14854","processTransfer((bytes32,bytes32,bytes32,bytes32,uint256,uint256,uint256,uint64,uint64),uint8,bytes)":"7ac15ec5","renounceRole(bytes32,address)":"36568abe","revokeRole(bytes32,address)":"d547741f","routers(uint8)":"bd9c7f51","setRouter(uint8,address)":"e4b58cdc","supportsInterface(bytes4)":"01ffc9a7"},"storageLayout":{"storage":[{"astId":36127,"contract":"src/Router.sol:Router","label":"_roles","offset":0,"slot":"0","type":"t_mapping(t_bytes32,t_struct(RoleData)36122_storage)"},{"astId":52422,"contract":"src/Router.sol:Router","label":"routers","offset":0,"slot":"1","type":"t_mapping(t_enum(Route)54446,t_address)"}],"types":{"t_address":{"encoding":"inplace","label":"address","numberOfBytes":"20"},"t_bool":{"encoding":"inplace","label":"bool","numberOfBytes":"1"},"t_bytes32":{"encoding":"inplace","label":"bytes32","numberOfBytes":"32"},"t_enum(Route)54446":{"encoding":"inplace","label":"enum Route","numberOfBytes":"1"},"t_mapping(t_address,t_bool)":{"encoding":"mapping","key":"t_address","label":"mapping(address => bool)","numberOfBytes":"32","value":"t_bool"},"t_mapping(t_bytes32,t_struct(RoleData)36122_storage)":{"encoding":"mapping","key":"t_bytes32","label":"mapping(bytes32 => struct AccessControl.RoleData)","numberOfBytes":"32","value":"t_struct(RoleData)36122_storage"},"t_mapping(t_enum(Route)54446,t_address)":{"encoding":"mapping","key":"t_enum(Route)54446","label":"mapping(enum Route => address)","numberOfBytes":"32","value":"t_address"},"t_struct(RoleData)36122_storage":{"encoding":"inplace","label":"struct AccessControl.RoleData","numberOfBytes":"64","members":[{"astId":36119,"contract":"src/Router.sol:Router","label":"hasRole","offset":0,"slot":"0","type":"t_mapping(t_address,t_bool)"},{"astId":36121,"contract":"src/Router.sol:Router","label":"adminRole","offset":0,"slot":"1","type":"t_bytes32"}]}}},"id":79}